:020000040800F2
:1000000000800120A5050008F5050008F505000899
:10001000F5050008F5050008F505000800000000DA
:10002000000000000000000000000000F5050008CE
:10003000F505000800000000F5050008F5050008BA
:10004000F5050008F5050008F5050008F5050008A8
:10005000F5050008F50500088D0400089B0400085C
:10006000A9040008B7040008F5050008F505000814
:10007000F5050008F5050008F5050008F505000878
:10008000F5050008F5050008F5050008000000006A
:10009000000000000000000000000000F50500085E
:1000A000F5050008F5050008F5050008F505000848
:1000B000F5050008F5050008F5050008F505000838
:1000C000F5050008F5050008F505000869040008B5
:1000D000F5050008F5050008F5050008000000001A
:1000E000F5050008F5050008F5050008000000000A
:1000F000000000000000000000000000F5050008FE
:1001000000000000F5050008F5050008F5050008E9
:1001100000000000000000000000000000000000DF
:10012000F5050008F5050008F5050008F5050008C7
:10013000F5050008000000000000000000000000BD
:10014000000000000000000000000000F5050008AD
:10015000F5050008F5050008F5050008F505000897
:10016000F5050008F505000800000000000000008B
:10017000000000000000000000000000000000007F
:1001800000000000F505000800000000000000006D
:04019000F505000869
:1001940010B5054C237833B9044B13B10448AFF3BD
:1001A40000800123237010BD000000200000000027
:1001B4000812000808B5034B1BB103490348AFF309
:1001C400008008BD000000000400002008120008A0
:1001D40080B5ACB000AF78607B68012B77D17E4BE3
:1001E4001B6B7D4A43F0010313630023C7F88C3073
:1001F4000023C7F898300023C7F89C300023C7F8C1
:10020400AC300EE0D7F8AC30C7F8883007F188037B
:100214001946724800F00CFAD7F8AC300133C7F82D
:10022400AC30D7F8AC30032BECDD02237B6705231D
:10023400C7F884300423C7F8A8300DE0D7F8A830F5
:100244003B6707F170031946644800F0F1F9D7F8E9
:10025400A8300133C7F8A830D7F8A830072BEDDD54
:100264005F4BFB6000233B610023BB820023FB82C6
:1002740000233B8300237B830023BB830023FB8376
:1002840000233B8400237B840023BB840123FB8461
:1002940040F201133B8501237B850123BB850123A8
:1002A400FB8500233B8601237B860023BB8600233A
:1002B400FB8601233B8700237B870023BB8707F151
:1002C4000C03184600F09AFC786800F08DF87B68FF
:1002D400002B7CD1404B1B6B3F4A43F0010313635B
:1002E4003D4B1B6B3C4A43F0080313630123FB653E
:1002F40000233B6601237B660023BB660023FB6669
:100304000023C7F8A4300DE0D7F8A430BB6507F18B
:1003140058031946334800F08BF9D7F8A430013359
:10032400C7F8A430D7F8A430022BEDDD02237B6498
:1003340005237B650423C7F8A0300DE0D7F8A0306F
:100344003B6407F140031946244800F071F9D7F8DB
:10035400A0300133C7F8A030D7F8A030072BEDDD6B
:100364001F4BFB6000233B610023BB820023FB8205
:1003740000233B8300237B830023BB830023FB8375
:1003840000233B8400237B840023BB840123FB8460
:1003940040F201133B8500237B850123BB850123A8
:1003A400FB8500233B8601237B860023BB86002339
:1003B400FB8601233B8700237B870023BB8707F150
:1003C4000C03184600F01AFC786800F00DF800BF22
:1003D400B037BD4680BD00BF003802400000024077
:1003E40000300140000C024080B582B000AF78605C
:1003F4007B68012B1FD10121002000F063FA062144
:10040400002000F0D3FA0121012000F05BFA07215B
:10041400012000F0CBFA0121022000F053FA082158
:10042400022000F0C3FA0121032000F04BFA092155
:10043400032000F0BBFA232000F0B2FE00BF08370F
:10044400BD4680BD80B582B000AF0346FB80FB880B
:100454001946034800F013FA00BF0837BD4680BDB3
:10046400000C024080B500AF054800F060FE034672
:100474001A46044B1A8000F023F800BF80BD00BF69
:10048400003001401C00002080B500AF002000F0C7
:10049400B7FA00BF80BD80B500AF012000F0B0FA0C
:1004A40000BF80BD80B500AF022000F0A9FA00BFF4
:1004B40080BD80B500AF032000F0A2FA00BF80BD6C
:1004C40080B500AF194B1B68002B19D1184B1B8842
:1004D400012B07D0164B1B88022B03D0144B1B880F
:1004E400042B09D1124B1B881846FFF7ABFFAA2136
:1004F400104800F029FE03E0FF210E4800F024FE1E
:100504000A4B1B68012B0FD1094B1B88FF2B03D10E
:100514000121084800F02EFE054B1B88AA2B03D1AD
:100524000421044800F026FE00BF80BD2000002006
:100534001C0000200030014080B582B000AF00F004
:1005440015F801237B607B68002B07D00120FFF79F
:100554003FFE0221044800F00DFE03E00020FFF7F7
:1005640037FE00BF00BFFDE70030014080B400AF9C
:1005740000BFBD465DF8047B7047000080B400AF47
:10058400064BD3F88830054A43F47003C2F8883028
:1005940000BFBD465DF8047B704700BF00ED00E07E
:1005A400DFF834D0FFF7EAFF0C480D490D4A002369
:1005B40002E0D458C4500433C4188C42F9D30A4A14
:1005C4000A4C002301E013600432A242FBD300F082
:1005D400F5FDFFF7B1FF7047008001200000002007
:1005E4000000002028120008000000202400002041
:1005F400FEE7000080B483B000AF0346FB7197F9B7
:100604000730002B0BDBFB7903F01F02074997F936
:1006140007305B09012000FA02F241F8232000BFF1
:100624000C37BD465DF8047B704700BF00E100E075
:1006340080B582B000AF786039603B681B6899B2BE
:100644003B685B681A46786800F047F80346002B5D
:1006540002D04FF0FF333CE03B681B6899B23B6823
:100664009B681A46786800F05BF80346002B02D0BA
:100674004FF0FF332DE03B681B6899B23B68DB68A1
:100684001A46786800F06DF80346002B02D04FF04C
:10069400FF331EE03B681B6899B23B681B691A462E
:1006A400786800F081F80346002B02D04FF0FF3346
:1006B4000FE03B681B6899B23B685B691A4678682F
:1006C40000F095F80346002B02D04FF0FF3300E012
:1006D400002318460837BD4680BD80B485B000AFFE
:1006E400F8600B467A607B81FB681B687A8952004C
:1006F400032101FA02F2D2431A40FB681A60FB6834
:100704001A687B895B00796801FA03F31A43FB6872
:100714001A60002318461437BD465DF8047B704701
:1007240080B485B000AFF8600B467A607B81FB68CB
:100734005B687A89012101FA02F2D2431A40FB680C
:100744005A60FB685A687B89796801FA03F31A4393
:10075400FB685A60002318461437BD465DF8047BD5
:10076400704780B485B000AFF8600B467A607B8137
:10077400FB689B687A895200032101FA02F2D24392
:100784001A40FB689A60FB689A687B895B00796809
:1007940001FA03F31A43FB689A60002318461437DE
:1007A400BD465DF8047B704780B485B000AFF86047
:1007B4000B467A607B81FB68DB687A8952000321EF
:1007C40001FA02F2D2431A40FB68DA60FB68DA6885
:1007D4007B895B00796801FA03F31A43FB68DA60EA
:1007E400002318461437BD465DF8047B704780B477
:1007F40085B000AFF8600B467A607B817B89072B5C
:1008040014D8FB681B6A7A8992000F2101FA02F25C
:10081400D2431A40FB681A62FB681A6A7B899B0000
:10082400796801FA03F31A43FB681A620023184635
:100834001437BD465DF8047B704780B483B000AFC5
:1008440078600B467B8013467B707B685B697A8893
:10085400012101FA02F2D2431A407B685A617B6893
:100864005B6979787A8801FA02F21A437B685A61E3
:10087400002318460C37BD465DF8047B704780B5ED
:1008840084B000AF78600B467B800023FB6011E0EE
:100894007B8803F001037B81FB689BB27A89D2B227
:1008A40019467868FFF7C9FF7B885B087B80FB6883
:1008B4000133FB60FB680E2BEADD0023184610377A
:1008C400BD4680BD80B483B000AF03463960FB8071
:1008D4003B68002B16D1344B9B68FA88012101FA3E
:1008E40002F2D2431146304A0B4093602E4B9B6870
:1008F400FA88012101FA02F211462B4A0B43936054
:1009040000234AE03B68012B16D1274BDB68FA88A9
:10091400012101FA02F2D2431146234A0B40D3606B
:10092400214BDB68FA88012101FA02F211461E4AC2
:100934000B43D360002330E03B68022B2BD11A4BCE
:100944009B68FA88012101FA02F2D2431146164A41
:100954000B409360144B9B68FA88012101FA02F260
:100964001146114A0B4393600F4BDB68FA8801214F
:1009740001FA02F2D24311460B4A0B40D3600A4BF0
:10098400DB68FA88012101FA02F21146064A0B4398
:10099400D360002301E04FF0FF3318460C37BD4607
:1009A4005DF8047B704700BF003C014080B582B015
:1009B40000AF03460A46FB8013467B710F4B1B684E
:1009C400FA88012101FA02F2D24311460B4A0B4084
:1009D40013600A4B1B68FA88012101FA02F21146DE
:1009E400064A0B43136097F905301846FFF702FED9
:1009F400002318460837BD4680BD00BF003C0140B7
:100A040080B483B000AF0346FB800E4B5B69FA8869
:100A1400012101FA02F21340002B0BD0094B5B6950
:100A2400FA88012101FA02F21146064A0B43536186
:100A3400002300E0002318460C37BD465DF8047B14
:100A4400704700BF003C014080B483B000AF034650
:100A5400FB7197F90730002B0BDBFB7903F01F02C6
:100A6400074997F907305B09012000FA02F241F8BF
:100A7400232000BF0C37BD465DF8047B704700BFE0
:100A840000E100E080B483B000AF78607B68032BA2
:100A940026D801A252F823F0AD0A0008BB0A0008C8
:100AA400C90A0008D70A0008104B5B6C0F4A43F4CC
:100AB4008053536414E00D4B1B6C0C4A43F4804385
:100AC40013640DE0094B1B6C084A43F400431364A0
:100AD40006E0064B5B6C054A43F40053536400BFC5
:100AE40000BF0C37BD465DF8047B704700380240F8
:100AF40080B584B000AFF860084611461A46034634
:100B04007B810B463B811346FB807B891946F86841
:100B140000F0E2F83B891946F86800F0F6F8FB8823
:100B24001946F86800F00AF93B8B1946F86800F09A
:100B34001EF9BB8B1946F86800F032F93B8C194654
:100B4400F86800F046F9BB8C1946F86800F05AF9C9
:100B54003B8D1946F86800F06EF9BB8D1946F868AC
:100B640000F082F93B8E1946F86800F0AFF9BB8EAD
:100B74001946F86800F0C3F93B8F1946F86800F08D
:100B8400D7F9BB8F1946F86800F0EBF900BF1037AE
:100B9400BD4680BD80B584B000AFF86008461146FC
:100BA4001A4603467B810B463B811346FB807B89B7
:100BB4001946F86800F0EDF93B891946F86800F029
:100BC40001FAFB881946F86800F015FA3B8B1946C0
:100BD400F86800F029FABB8B1946F86800F03DFA72
:100BE4003B8C1946F86800F051FABB8C1946F8683A
:100BF40000F065FA00BF1037BD4680BD2DE9F04313
:100C040091B00AAF78617B695B681846FFF73AFFD9
:100C14007B691B680021184600F03FF97B691B685B
:100C24003B617B69B3F808C07B69B3F80AE07B6970
:100C3400B3F80C807B69DA897B69198A7B69588AE5
:100C44007B699C8A7B69DD8A7B691E8B7B699B8BB4
:100C5400FB607B69DB8BBB607B69B3F820904B4600
:100C64007B607B695B8C09937B680893BB68079303
:100C7400FB680693059604950394029001910092F3
:100C84004346724661463869FFF732FF7B691C6848
:100C94007B699D8C7B69DE8C7B69B3F828C07B699A
:100CA4005B8D7A69928D7969C98D7869008E03901C
:100CB4000291019200936346324629462046FFF78B
:100CC40069FF7B691B680121184600F0E6F800BF44
:100CD4001C37BD46BDE8F08380B483B000AF7860B4
:100CE4000B467B807B681B6823F400427B681A6098
:100CF4007B681A687B88DB031A437B681A6000BF31
:100D04000C37BD465DF8047B704780B483B000AFF8
:100D140078600B467B807B681B6823F480427B6889
:100D24001A607B681A687B889B031A437B681A6085
:100D340000BF0C37BD465DF8047B704780B483B0B8
:100D440000AF78600B467B807B681B6823F40052FD
:100D54007B681A607B681A687B885B031A437B682C
:100D64001A6000BF0C37BD465DF8047B704780B441
:100D740083B000AF78600B467B807B681B6823F4EC
:100D840080527B681A607B681A687B881B031A434D
:100D94007B681A6000BF0C37BD465DF8047B704762
:100DA40080B483B000AF78600B467B807B681B689F
:100DB40023F400627B681A607B681A687B88DB0214
:100DC4001A437B681A6000BF0C37BD465DF8047B8C
:100DD400704780B483B000AF78600B467B807B683B
:100DE4001B6823F480627B681A607B681A687B88BE
:100DF4009B021A437B681A6000BF0C37BD465DF83E
:100E0400047B704780B483B000AF78600B467B806E
:100E14007B681B6823F400727B681A607B681A681D
:100E24007B885B021A437B681A6000BF0C37BD469F
:100E34005DF8047B704780B483B000AF78600B46E4
:100E44007B807B681B6823F480727B681A607B68F4
:100E54001A687B881B021A437B681A6000BF0C3730
:100E6400BD465DF8047B704780B483B000AF786002
:100E74000B467B807B681B6823F080027B681A60CA
:100E84007B681A687B88DB011A437B681A6000BFA1
:100E94000C37BD465DF8047B704780B483B000AF67
:100EA40078600B467B807B681B6823F040027B687C
:100EB4001A607B681A687B889B011A437B681A60F6
:100EC40000BF0C37BD465DF8047B704780B483B027
:100ED40000AF78600B467B807B681B6823F0380288
:100EE4007B681A607B681A687B88DB001A437B681E
:100EF4001A6000BF0C37BD465DF8047B704780B4B0
:100F040083B000AF78600B467B807B681B6823F05E
:100F140004027B681A607B681A687B889B001A430A
:100F24007B681A6000BF0C37BD465DF8047B7047D0
:100F340080B483B000AF78600B467B807B681B680D
:100F440023F002027B681A607B681A687B885B0066
:100F54001A437B681A6000BF0C37BD465DF8047BFA
:100F6400704780B483B000AF78600B467B807B68A9
:100F74001B6823F001027B681A607B681A687B880F
:100F84001A437B681A6000BF0C37BD465DF8047BCA
:100F9400704780B483B000AF78600B467B807B6879
:100FA4005B6823F080027B685A607B685A687B88A0
:100FB400DB011A437B685A6000BF0C37BD465DF8FD
:100FC400047B704780B483B000AF78600B467B80AD
:100FD4007B685B6823F040027B685A607B685A68D0
:100FE4007B889B011A437B685A6000BF0C37BD465F
:100FF4005DF8047B704780B483B000AF78600B4623
:101004007B807B685B6823F020027B685A607B6886
:101014005A687B885B011A437B685A6000BF0C37AF
:10102400BD465DF8047B704780B483B000AF786040
:101034000B467B807B685B6823F010027B685A60F8
:101044007B685A687B881B011A437B685A6000BF1F
:101054000C37BD465DF8047B704780B483B000AFA5
:1010640078600B467B807B685B6823F004027B68B6
:101074005A607B685A687B889B001A437B685A6075
:1010840000BF0C37BD465DF8047B704780B483B065
:1010940000AF78600B467B807B685B6823F00202BC
:1010A4007B685A607B685A687B885B001A437B685C
:1010B4005A6000BF0C37BD465DF8047B704780B4AE
:1010C40083B000AF78600B467B807B685B6823F05D
:1010D40001027B685A607B685A687B881A437B6884
:1010E4005A6000BF0C37BD465DF8047B704780B47E
:1010F40083B000AF78607B689B685B089BB203F0A9
:1011040001039BB218460C37BD465DF8047B70475B
:1011140080B483B000AF78600B467B807A887B68AC
:10112400DA6000BF0C37BD465DF8047B704780B4BD
:1011340083B000AF78607B68DB689BB218460C37DD
:10114400BD465DF8047B704780B582B000AF78601F
:101154000B467B8000BF7868FFF7C9FF0346002B6E
:10116400F9D07B8819467868FFF7D2FF00BF0837AB
:10117400BD4680BD80B582B000AF78600B467B80F1
:1011840000BF7868FFF7B3FF0346002BF9D07B88D4
:1011940019467868FFF7BCFF00BF0837BD4680BD1D
:1011A40080B582B000AF0346FB7197F9073018464B
:1011B400FFF74AFC00BF0837BD4680BD70B50D4D32
:1011C4000D4C641BA4100026A64209D10B4D0C4CF7
:1011D40000F018F8641BA4100026A64205D170BDC7
:1011E40055F8043B98470136EEE755F8043B984719
:1011F4000136F2E72012000820120008201200082D
:1012040024120008F8B500BFF8BC08BC9E4670471D
:0C121400F8B500BFF8BC08BC9E4670474F
:04122000B901000808
:041224009501000828
:04000005080005A545
:00000001FF
