:020000040800F2
:10000000008001202D0400087D0400087D04000804
:100010007D0400087D0400087D0400080000000045
:100020000000000000000000000000007D04000847
:100030007D040008000000007D0400087D04000825
:100040007D0400087D0400087D0400087D0400088C
:100050007D0400087D0400087D0400087D0400087C
:100060007D0400087D0400087D0400087D0400086C
:100070007D0400087D0400087D0400087D0400085C
:100080007D0400087D0400087D04000800000000D5
:100090000000000000000000000000007D040008D7
:1000A0007D0400087D0400087D0400087D0400082C
:1000B0007D0400087D0400087D0400087D0400081C
:1000C0007D0400087D0400087D0400087D0400080C
:1000D0007D0400087D0400087D0400080000000085
:1000E0007D0400087D0400087D0400080000000075
:1000F0000000000000000000000000007D04000877
:10010000000000007D0400087D0400087D04000854
:1001100000000000000000000000000000000000DF
:100120007D0400087D0400087D0400087D040008AB
:100130007D04000800000000000000000000000036
:100140000000000000000000000000007D04000826
:100150007D0400087D0400087D0400087D0400087B
:100160007D0400087D04000800000000000000007D
:10017000000000000000000000000000000000007F
:10018000000000007D0400080000000000000000E6
:040190007D040008E2
:1001940010B5054C237833B9044B13B10448AFF3BD
:1001A40000800123237010BD000000200000000027
:1001B400740C000808B5034B1BB103490348AFF3A3
:1001C400008008BD0000000004000020740C00083A
:1001D40080B590B000AF00F00DF90023FB63FB6B1A
:1001E400002B7ED07F4B1B6B7E4A43F001031363CD
:1001F4007C4B1B6B7B4A43F0080313637A4B00224E
:100204001A60794B1B68784A43F42A431360764B8F
:100214001B6A754A43F0AA4343F4AA031362734B5F
:100224001B68724A43F055031360704B01225A61F4
:100234006F4B7B600023BB600023BB810023FB81E9
:1002440000233B8200237B820023BB820023FB82AA
:1002540000233B8300237B830023BB830123FB8395
:1002640040F201133B8401237B840123BB840123DB
:10027400FB8400233B8500237B850023BB8500236F
:10028400FB8501233B8600237B860023BB863B1D25
:10029400184600F0AFF97B68AA21184600F09AFCD2
:1002A400524B02225A617B68184600F0A9FC0346AF
:1002B4003B873B8F552B03D14C4B04225A6102E000
:1002C4004A4B01225A6100BF7B68184600F00BFCC0
:1002D4000346012BF8D07B680021184600F0D9FAB8
:1002E4007EE0404B1B6B3F4A43F0010313633D4BDD
:1002F4001B6B3C4A43F0080313633B4B00221A6018
:10030400394B1B68384A43F42A431360364B1B6A43
:10031400354A43F0AA4343F4AA031362334B1B68E0
:10032400324A43F055031360304B01225A61304B7B
:100334007B600023BB600023BB810023FB8100237F
:100344003B8200237B820023BB820023FB820023A9
:100354003B8300237B830023BB830123FB8340F285
:1003640001133B8400237B840123BB840123FB848E
:1003740000233B8500237B850023BB850023FB856D
:1003840001233B8600237B860023BB863B1D184646
:1003940000F030F97B685521184600F0F2FB134B4E
:1003A40002225A617B68184600F001FC03467B87F1
:1003B4007B8FAA2B03D10D4B04225A6102E00B4B15
:1003C40001225A6100BF7B68184600F08CFB03468B
:1003D400012BF8D07B680021184600F05AFA00BFC0
:1003E40000BFFDE70038024000000240000C02405C
:1003F4000030014080B400AF00BFBD465DF8047B0F
:100404007047000080B400AF064BD3F88830054A2B
:1004140043F47003C2F8883000BFBD465DF8047B26
:10042400704700BF00ED00E0DFF834D0FFF7EAFFCB
:100434000C480D490D4A002302E0D458C45004333B
:10044400C4188C42F9D30A4A0A4C002301E0136011
:100454000432A242FBD300F0E7FBFFF7B9FE70477A
:10046400008001200000002000000020940C0008FF
:10047400000000201C000020FEE7000080B483B0D0
:1004840000AF78607B68032B26D801A252F823F0D2
:10049400A5040008B3040008C1040008CF04000840
:1004A400104B5B6C0F4A43F48053536414E00D4BC0
:1004B4001B6C0C4A43F4804313640DE0094B1B6C22
:1004C400084A43F40043136406E0064B5B6C054A98
:1004D40043F40053536400BF00BF0C37BD465DF8BE
:1004E400047B70470038024080B584B000AFF860E8
:1004F400084611461A4603467B810B463B81134648
:10050400FB807B891946F86800F0E2F83B891946BC
:10051400F86800F0F6F8FB881946F86800F00AF964
:100524003B8B1946F86800F01EF9BB8B1946F86836
:1005340000F032F93B8C1946F86800F046F9BB8CA0
:100544001946F86800F05AF93B8D1946F86800F02E
:100554006EF9BB8D1946F86800F082F93B8E194696
:10056400F86800F0AFF9BB8E1946F86800F0C3F9DB
:100574003B8F1946F86800F0D7F9BB8F1946F86825
:1005840000F0EBF900BF1037BD4680BD80B584B0E4
:1005940000AFF860084611461A4603467B810B46B5
:1005A4003B811346FB807B891946F86800F0EDF91E
:1005B4003B891946F86800F001FAFB881946F86887
:1005C40000F015FA3B8B1946F86800F029FABB8B4A
:1005D4001946F86800F03DFA3B8C1946F86800F0BB
:1005E40051FABB8C1946F86800F065FA00BF103761
:1005F400BD4680BD2DE9F04391B00AAF78617B69B7
:100604005B681846FFF73AFF7B691B6800211846B0
:1006140000F03FF97B691B683B617B69B3F808C054
:100624007B69B3F80AE07B69B3F80C807B69DA89EB
:100634007B69198A7B69588A7B699C8A7B69DD8A14
:100644007B691E8B7B699B8BFB607B69DB8BBB604F
:100654007B69B3F820904B467B607B695B8C099384
:100664007B680893BB680793FB680693059604951B
:1006740003940290019100924346724661463869A0
:10068400FFF732FF7B691C687B699D8C7B69DE8C7C
:100694007B69B3F828C07B695B8D7A69928D79692F
:1006A400C98D7869008E039002910192009363468C
:1006B400324629462046FFF769FF7B691B68012102
:1006C400184600F0E6F800BF1C37BD46BDE8F083CD
:1006D40080B483B000AF78600B467B807B681B6876
:1006E40023F400427B681A607B681A687B88DB030A
:1006F4001A437B681A6000BF0C37BD465DF8047B63
:10070400704780B483B000AF78600B467B807B6811
:100714001B6823F480427B681A607B681A687B88B4
:100724009B031A437B681A6000BF0C37BD465DF813
:10073400047B704780B483B000AF78600B467B8045
:100744007B681B6823F400527B681A607B681A6814
:100754007B885B031A437B681A6000BF0C37BD4675
:100764005DF8047B704780B483B000AF78600B46BB
:100774007B807B681B6823F480527B681A607B68EB
:100784001A687B881B031A437B681A6000BF0C3706
:10079400BD465DF8047B704780B483B000AF7860D9
:1007A4000B467B807B681B6823F400627B681A60BD
:1007B4007B681A687B88DB021A437B681A6000BF77
:1007C4000C37BD465DF8047B704780B483B000AF3E
:1007D40078600B467B807B681B6823F480627B68AF
:1007E4001A607B681A687B889B021A437B681A60CC
:1007F40000BF0C37BD465DF8047B704780B483B0FE
:1008040000AF78600B467B807B681B6823F4007222
:100814007B681A607B681A687B885B021A437B6872
:100824001A6000BF0C37BD465DF8047B704780B486
:1008340083B000AF78600B467B807B681B6823F431
:1008440080727B681A607B681A687B881B021A4373
:100854007B681A6000BF0C37BD465DF8047B7047A7
:1008640080B483B000AF78600B467B807B681B68E4
:1008740023F080027B681A607B681A687B88DB013E
:100884001A437B681A6000BF0C37BD465DF8047BD1
:10089400704780B483B000AF78600B467B807B6880
:1008A4001B6823F040027B681A607B681A687B88A7
:1008B4009B011A437B681A6000BF0C37BD465DF884
:1008C400047B704780B483B000AF78600B467B80B4
:1008D4007B681B6823F038027B681A607B681A689F
:1008E4007B88DB001A437B681A6000BF0C37BD4667
:1008F4005DF8047B704780B483B000AF78600B462A
:100904007B807B681B6823F004027B681A607B6829
:100914001A687B889B001A437B681A6000BF0C37F7
:10092400BD465DF8047B704780B483B000AF786047
:100934000B467B807B681B6823F002027B681A608D
:100944007B681A687B885B001A437B681A6000BF67
:100954000C37BD465DF8047B704780B483B000AFAC
:1009640078600B467B807B681B6823F001027B6800
:100974001A607B681A687B881A437B681A6000BF18
:100984000C37BD465DF8047B704780B483B000AF7C
:1009940078600B467B807B685B6823F080027B6811
:1009A4005A607B685A687B88DB011A437B685A600B
:1009B40000BF0C37BD465DF8047B704780B483B03C
:1009C40000AF78600B467B807B685B6823F0400255
:1009D4007B685A607B685A687B889B011A437B68F2
:1009E4005A6000BF0C37BD465DF8047B704780B485
:1009F40083B000AF78600B467B807B685B6823F034
:100A040020027B685A607B685A687B885B011A43C2
:100A14007B685A6000BF0C37BD465DF8047B7047A5
:100A240080B483B000AF78600B467B807B685B68E2
:100A340023F010027B685A607B685A687B881B012C
:100A44001A437B685A6000BF0C37BD465DF8047BCF
:100A5400704780B483B000AF78600B467B807B68BE
:100A64005B6823F004027B685A607B685A687B8861
:100A74009B001A437B685A6000BF0C37BD465DF883
:100A8400047B704780B483B000AF78600B467B80F2
:100A94007B685B6823F002027B685A607B685A6853
:100AA4007B885B001A437B685A6000BF0C37BD46E5
:100AB4005DF8047B704780B483B000AF78600B4668
:100AC4007B807B685B6823F001027B685A607B68EB
:100AD4005A687B881A437B685A6000BF0C37BD464E
:100AE4005DF8047B704780B483B000AF78607B68A6
:100AF4009B68DB099BB203F001039BB218460C37D9
:100B0400BD465DF8047B704780B483B000AF786065
:100B14007B689B685B089BB203F001039BB2184699
:100B24000C37BD465DF8047B704780B483B000AFDA
:100B340078607B689B689BB203F001039BB2184604
:100B44000C37BD465DF8047B704780B483B000AFBA
:100B540078600B467B807A887B68DA6000BF0C374C
:100B6400BD465DF8047B704780B483B000AF786005
:100B74007B68DB689BB218460C37BD465DF8047B86
:100B8400704780B582B000AF78600B467B8000BFB1
:100B94007868FFF7B9FF0346002BF9D07B88194624
:100BA4007868FFF7D2FF00BF0837BD4680BD80B527
:100BB40082B000AF786000BF7868FFF7B6FF0346E5
:100BC400002BF9D07868FFF7CFFF034618460837A3
:100BD400BD4680BD80B582B000AF78600B467B8097
:100BE40000BF7868FFF790FF0346002BF9D07B889D
:100BF40019467868FFF7A9FF00BF0837BD4680BDD6
:100C040080B582B000AF786000BF7868FFF78DFFD1
:100C14000346002BF9D07868FFF7A6FF0346184671
:100C24000837BD4680BD000070B50D4D0D4C641BEA
:100C3400A4100026A64209D10B4D0C4C00F018F864
:100C4400641BA4100026A64205D170BD55F8043BD0
:100C540098470136EEE755F8043B98470136F2E72A
:100C64008C0C00088C0C00088C0C0008900C0008FC
:100C7400F8B500BFF8BC08BC9E467047F8B500BF85
:080C8400F8BC08BC9E46704755
:040C8C00B9010008A2
:040C900095010008C2
:040000050800042DBE
:00000001FF
