:020000040800F2
:1000000000800120410400089104000891040008C8
:100010009104000891040008910400080000000009
:100020000000000000000000000000009104000833
:1000300091040008000000009104000891040008E9
:10004000910400089104000891040008910400083C
:10005000910400089104000891040008910400082C
:10006000910400089104000891040008910400081C
:10007000910400089104000891040008910400080C
:100080009104000891040008910400080000000099
:1000900000000000000000000000000091040008C3
:1000A00091040008910400089104000891040008DC
:1000B00091040008910400089104000891040008CC
:1000C00091040008910400089104000891040008BC
:1000D0009104000891040008910400080000000049
:1000E0009104000891040008910400080000000039
:1000F0000000000000000000000000009104000863
:100100000000000091040008910400089104000818
:1001100000000000000000000000000000000000DF
:10012000910400089104000891040008910400085B
:100130009104000800000000000000000000000022
:100140000000000000000000000000009104000812
:10015000910400089104000891040008910400082B
:100160009104000891040008000000000000000055
:10017000000000000000000000000000000000007F
:1001800000000000910400080000000000000000D2
:0401900091040008CE
:1001940010B5054C237833B9044B13B10448AFF3BD
:1001A40000800123237010BD000000200000000027
:1001B400480B000808B5034B1BB103490348AFF3D0
:1001C400008008BD0000000004000020480B000867
:1001D40080B590B000AF00F017F90023FB63FB6B10
:1001E400002B00F08380844B1B6B834A43F0010394
:1001F4001363814B1B6B804A43F0080313637F4BEB
:1002040000221A607D4B1B687C4A43F42A43136026
:100214007A4B1B6A794A43F0AA4343F4AA03136254
:10022400774B1B68764A43F055031360744B0122E5
:100234005A61744B7B600023BB600023BB810023A5
:10024400FB8100233B8200237B820023BB820023AB
:10025400FB8200233B8300237B830023BB83012396
:10026400FB8340F201133B8401237B840123BB8481
:100274000123FB8400233B8500237B850023BB856E
:100284000023FB8501233B8600237B860023BB865A
:100294003B1D184600F0B8F95A4BAA22DA60584BB5
:1002A40002225A6100BF574B9B6803F00103002BE5
:1002B400F9D0544BDB6887F83A3097F83A30552B2D
:1002C40003D14F4B04225A6102E04D4B01225A6183
:1002D40000BF4C4B9B6803F08003002BF9D1494BC2
:1002E4001B68484A23F04003136082E0424B1B6BB7
:1002F400414A43F0010313633F4B1B6B3E4A43F0F7
:10030400080313633D4B00221A603C4B1B683B4AB5
:1003140043F42A431360394B1B6A384A43F0AA4317
:1003240043F4AA031362364B1B68354A43F0550362
:100334001360334B01225A61324B7B600023BB6054
:100344000023BB810023FB8100233B8200237B82AB
:100354000023BB820023FB8200233B8300237B8397
:100364000023BB830123FB8340F201133B8400235E
:100374007B840123BB840123FB8400233B8500236E
:100384007B850023BB850023FB8501233B8600235B
:100394007B860023BB863B1D184600F035F9194BBC
:1003A4005522DA60164B02225A6100BF154B9B6836
:1003B40003F00103002BF9D0124BDB6887F83B30C4
:1003C40097F83B30AA2B03D10D4B04225A6102E06B
:1003D4000B4B01225A6100BF0A4B9B6803F0800358
:1003E400002BF9D1074B1B68064A23F04003136026
:1003F40000BF00BFFDE700BF00380240000002401C
:10040400000C02400030014080B400AF00BFBD4684
:100414005DF8047B7047000080B400AF064BD3F84E
:100424008830054A43F47003C2F8883000BFBD46E3
:100434005DF8047B704700BF00ED00E0DFF834D0C6
:10044400FFF7EAFF0C480D490D4A002302E0D45897
:10045400C4500433C4188C42F9D30A4A0A4C00230A
:1004640001E013600432A242FBD300F047FBFFF724
:10047400AFFE704700800120000000200000002033
:10048400680B0008000000201C000020FEE70000AC
:1004940080B483B000AF78607B68032B26D801A2B8
:1004A40052F823F0B9040008C7040008D504000872
:1004B400E3040008104B5B6C0F4A43F4805353640D
:1004C40014E00D4B1B6C0C4A43F4804313640DE0A1
:1004D400094B1B6C084A43F40043136406E0064BC3
:1004E4005B6C054A43F40053536400BF00BF0C37F0
:1004F400BD465DF8047B70470038024080B584B087
:1005040000AFF860084611461A4603467B810B4645
:100514003B811346FB807B891946F86800F0E2F8BA
:100524003B891946F86800F0F6F8FB881946F86824
:1005340000F00AF93B8B1946F86800F01EF9BB8BF2
:100544001946F86800F032F93B8C1946F86800F057
:1005540046F9BB8C1946F86800F05AF93B8D1946E8
:10056400F86800F06EF9BB8D1946F86800F082F95E
:100574003B8E1946F86800F0AFF9BB8E1946F8684F
:1005840000F0C3F93B8F1946F86800F0D7F9BB8F28
:100594001946F86800F0EBF900BF1037BD4680BD7E
:1005A40080B584B000AFF860084611461A46034689
:1005B4007B810B463B811346FB807B891946F86897
:1005C40000F0EDF93B891946F86800F001FAFB8860
:1005D4001946F86800F015FA3B8B1946F86800F0E4
:1005E40029FABB8B1946F86800F03DFA3B8C194692
:1005F400F86800F051FABB8C1946F86800F065FA07
:1006040000BF1037BD4680BD2DE9F04391B00AAF5D
:1006140078617B695B681846FFF73AFF7B691B6862
:100624000021184600F03FF97B691B683B617B6938
:10063400B3F808C07B69B3F80AE07B69B3F80C80AF
:100644007B69DA897B69198A7B69588A7B699C8A08
:100654007B69DD8A7B691E8B7B699B8BFB607B6975
:10066400DB8BBB607B69B3F820904B467B607B6976
:100674005B8C09937B680893BB680793FB680693BC
:1006840005960495039402900191009243467246A4
:1006940061463869FFF732FF7B691C687B699D8C72
:1006A4007B69DE8C7B69B3F828C07B695B8D7A69D2
:1006B400928D7969C98D7869008E039002910192B7
:1006C40000936346324629462046FFF769FF7B695B
:1006D4001B680121184600F0E6F800BF1C37BD4630
:1006E400BDE8F08380B483B000AF78600B467B80B4
:1006F4007B681B6823F400427B681A607B681A6875
:100704007B88DB031A437B681A6000BF0C37BD4645
:100714005DF8047B704780B483B000AF78600B460B
:100724007B807B681B6823F480427B681A607B684B
:100734001A687B889B031A437B681A6000BF0C37D6
:10074400BD465DF8047B704780B483B000AF786029
:100754000B467B807B681B6823F400527B681A601D
:100764007B681A687B885B031A437B681A6000BF46
:100774000C37BD465DF8047B704780B483B000AF8E
:1007840078600B467B807B681B6823F480527B680F
:100794001A607B681A687B881B031A437B681A609B
:1007A40000BF0C37BD465DF8047B704780B483B04E
:1007B40000AF78600B467B807B681B6823F4006283
:1007C4007B681A607B681A687B88DB021A437B6843
:1007D4001A6000BF0C37BD465DF8047B704780B4D7
:1007E40083B000AF78600B467B807B681B6823F482
:1007F40080627B681A607B681A687B889B021A4354
:100804007B681A6000BF0C37BD465DF8047B7047F7
:1008140080B483B000AF78600B467B807B681B6834
:1008240023F400727B681A607B681A687B885B0219
:100834001A437B681A6000BF0C37BD465DF8047B21
:10084400704780B483B000AF78600B467B807B68D0
:100854001B6823F480727B681A607B681A687B8843
:100864001B021A437B681A6000BF0C37BD465DF853
:10087400047B704780B483B000AF78600B467B8004
:100884007B681B6823F080027B681A607B681A68A7
:100894007B88DB011A437B681A6000BF0C37BD46B6
:1008A4005DF8047B704780B483B000AF78600B467A
:1008B4007B807B681B6823F040027B681A607B683E
:1008C4001A687B889B011A437B681A6000BF0C3747
:1008D400BD465DF8047B704780B483B000AF786098
:1008E4000B467B807B681B6823F038027B681A60A8
:1008F4007B681A687B88DB001A437B681A6000BF38
:100904000C37BD465DF8047B704780B483B000AFFC
:1009140078600B467B807B681B6823F004027B684D
:100924001A607B681A687B889B001A437B681A608C
:1009340000BF0C37BD465DF8047B704780B483B0BC
:1009440000AF78600B467B807B681B6823F0020253
:100954007B681A607B681A687B885B001A437B6833
:100964001A6000BF0C37BD465DF8047B704780B445
:1009740083B000AF78600B467B807B681B6823F0F4
:1009840001027B681A607B681A687B881A437B685B
:100994001A6000BF0C37BD465DF8047B704780B415
:1009A40083B000AF78600B467B807B685B6823F084
:1009B40080027B685A607B685A687B88DB011A4333
:1009C4007B685A6000BF0C37BD465DF8047B7047F6
:1009D40080B483B000AF78600B467B807B685B6833
:1009E40023F040027B685A607B685A687B889B01CD
:1009F4001A437B685A6000BF0C37BD465DF8047B20
:100A0400704780B483B000AF78600B467B807B680E
:100A14005B6823F020027B685A607B685A687B8895
:100A24005B011A437B685A6000BF0C37BD465DF812
:100A3400047B704780B483B000AF78600B467B8042
:100A44007B685B6823F010027B685A607B685A6895
:100A54007B881B011A437B685A6000BF0C37BD4674
:100A64005DF8047B704780B483B000AF78600B46B8
:100A74007B807B685B6823F004027B685A607B6838
:100A84005A687B889B001A437B685A6000BF0C3706
:100A9400BD465DF8047B704780B483B000AF7860D6
:100AA4000B467B807B685B6823F002027B685A609C
:100AB4007B685A687B885B001A437B685A6000BF76
:100AC4000C37BD465DF8047B704780B483B000AF3B
:100AD40078600B467B807B685B6823F001027B684F
:100AE4005A607B685A687B881A437B685A6000BFE7
:100AF4000C37BD465DF8047B7047000070B50D4DA2
:100B04000D4C641BA4100026A64209D10B4D0C4CBD
:100B140000F018F8641BA4100026A64205D170BD8D
:100B240055F8043B98470136EEE755F8043B9847DF
:100B34000136F2E7600B0008600B0008600B000848
:100B4400640B0008F8B500BFF8BC08BC9E467047AB
:0C0B5400F8B500BFF8BC08BC9E46704716
:040B6000B9010008CF
:040B640095010008EF
:0400000508000441AA
:00000001FF
