:020000040800F2
:100000000080012065030008B5030008B50300085F
:10001000B5030008B5030008B503000800000000A0
:10002000000000000000000000000000B503000810
:10003000B503000800000000B5030008B503000880
:10004000B5030008B5030008B5030008B5030008B0
:10005000B5030008B5030008B5030008B5030008A0
:10006000B5030008B5030008B5030008B503000890
:10007000B5030008B5030008B5030008B503000880
:10008000B5030008B5030008B50300080000000030
:10009000000000000000000000000000B5030008A0
:1000A000B5030008B5030008B5030008B503000850
:1000B000B5030008B5030008B5030008B503000840
:1000C000B5030008B5030008B5030008B503000830
:1000D000B5030008B5030008B503000800000000E0
:1000E000B5030008B5030008B503000800000000D0
:1000F000000000000000000000000000B503000840
:1001000000000000B5030008B5030008B5030008AF
:1001100000000000000000000000000000000000DF
:10012000B5030008B5030008B5030008B5030008CF
:10013000B5030008000000000000000000000000FF
:10014000000000000000000000000000B5030008EF
:10015000B5030008B5030008B5030008B50300089F
:10016000B5030008B503000800000000000000000F
:10017000000000000000000000000000000000007F
:1001800000000000B50300080000000000000000AF
:04019000B5030008AB
:1001940010B5054C237833B9044B13B10448AFF3BD
:1001A40000800123237010BD000000200000000027
:1001B4000004000808B5034B1BB103490348AFF31F
:1001C400008008BD000000000400002000040008B6
:1001D40080B582B000AF00F0A9F801237B607B6892
:1001E400002B4BD04C4B1B6B4B4A43F00103136366
:1001F400494B1B6B484A43F008031363474B1B6886
:10020400464A43F02A7343F400331360434B5A6A5B
:100214004249434B13434B62424B1B68414A43F0F0
:10022400550313603C4B5B6C3B4A43F0100353642F
:100234003D4B4FF416529A603B4BDB683A4A43F00D
:100244000C03D360384B384A1B691361364B364A6A
:100254005B695361344BDB68334A43F40053D36026
:1002640000237B8000BF304B1B6803F02003002B6E
:10027400F9D02D4B2B4A5B685361F3E7264B1B6B7C
:10028400254A43F001031363234B1B6B224A43F0BB
:1002940008031363214B1B68204A43F02A7343F479
:1002A400003313601D4B5A6A1C491D4B13434B62A8
:1002B4001C4B1B681B4A43F055031360194B012266
:1002C4005A61154B5B6C144A43F010035364164B8C
:1002D40040F283629A60144BDB68134A43F00C03C8
:1002E400D360114B104A1B6913610F4B0E4A5B69B3
:1002F40053610D4BDB680C4A43F40053D36000BFD9
:10030400094B1B6803F02003002BF9D0064B054A68
:100314005B68536100BFFDE7003802400000024003
:1003240077770700000C02400010014080B400AF52
:1003340000BFBD465DF8047B7047000080B400AF89
:10034400064BD3F88830054A43F47003C2F888306A
:1003540000BFBD465DF8047B704700BF00ED00E0C0
:10036400DFF834D0FFF7EAFF0C480D490D4A0023AB
:1003740002E0D458C4500433C4188C42F9D30A4A56
:100384000A4C002301E013600432A242FBD300F0C4
:1003940011F8FFF71DFF70470080012000000020C6
:1003A4000000002020040008000000201C000020A1
:1003B400FEE7000070B50D4D0D4C641BA410002623
:1003C400A64209D10B4D0C4C00F018F8641BA41084
:1003D4000026A64205D170BD55F8043B9847013666
:1003E400EEE755F8043B98470136F2E71804000895
:1003F40018040008180400081C040008F8B500BF1D
:10040400F8BC08BC9E467047F8B500BFF8BC08BCF1
:040414009E46704749
:04041800B90100081E
:04041C00950100083E
:040000050800036587
:00000001FF
