:020000040800F2
:100000000080012051110008A1110008A111000871
:10001000A1110008A1110008A111000800000000B2
:10002000000000000000000000000000A111000816
:10003000A111000800000000A1110008A111000892
:10004000A1110008A1110008A1110008A1110008C8
:10005000A1110008A1110008B9100008A1110008A1
:10006000A1110008ED100008FB100008A111000804
:10007000A1110008A1110008A1110008A111000898
:10008000A1110008A1110008A11100080000000042
:10009000000000000000000000000000A1110008A6
:1000A000A1110008A1110008A1110008A111000868
:1000B000A1110008A1110008A1110008A111000858
:1000C000A1110008A1110008A1110008A111000848
:1000D000A111000869100008A1110008000000002B
:1000E000A1110008A1110008A111000800000000E2
:1000F000000000000000000000000000A111000846
:1001000000000000A1110008A1110008A1110008C1
:1001100000000000000000000000000000000000DF
:10012000A1110008A1110008A1110008A1110008E7
:10013000A111000800000000000000000000000005
:10014000000000000000000000000000A1110008F5
:10015000A1110008A1110008A1110008A1110008B7
:10016000A1110008A111000800000000000000001B
:10017000000000000000000000000000000000007F
:1001800000000000A11100080000000000000000B5
:04019000A1110008B1
:1001980010B5054C237833B9044B13B10448AFF3B9
:1001A80000800123237010BD000000200000000023
:1001B8006423000808B5034B1BB103490348AFF398
:1001C800008008BD0000000004000020642300082F
:1001D80081F0004102E000BF83F0004330B54FEAF0
:1001E80041044FEA430594EA050F08BF90EA020F5D
:1001F8001FBF54EA000C55EA020C7FEA645C7FEAF0
:10020800655C00F0E2804FEA5454D4EB5555B8BF12
:100218006D420CDD2C4480EA020281EA030382EA83
:10022800000083EA010180EA020281EA0303362D15
:1002380088BF30BD11F0004F4FEA01314FF4801CE8
:100248004CEA113102D0404261EB410113F0004FFA
:100258004FEA03334CEA133302D0524263EB4303B1
:1002680094EA050F00F0A780A4F10104D5F1200E4F
:100278000DDB02FA0EFC22FA05F2801841F10001AA
:1002880003FA0EF2801843FA05F359410EE0A5F17E
:1002980020050EF1200E012A03FA0EFC28BF4CF0AF
:1002A800020C43FA05F3C01851EBE37101F0004565
:1002B80007D54FF0000EDCF1000C7EEB00006EEB72
:1002C8000101B1F5801F1BD3B1F5001F0CD34908FC
:1002D8005FEA30004FEA3C0C04F101044FEA445253
:1002E80012F5800F80F09A80BCF1004F08BF5FEADA
:1002F800500C50F1000041EB045141EA050130BDBA
:100308005FEA4C0C404141EB0101013C28BFB1F5CB
:10031800801FE9D291F0000F04BF01460020B1FA16
:1003280081F308BF2033A3F10B03B3F120020CDAE9
:100338000C3208DD02F1140CC2F10C0201FA0CF0C7
:1003480021FA02F10CE002F11402D8BFC2F1200C2C
:1003580001FA02F120FA0CFCDCBF41EA0C019040E2
:10036800E41AA2BF01EB0451294330BD6FEA04042B
:100378001F3C1CDA0C340EDC04F11404C4F1200216
:1003880020FA04F001FA02F340EA030021FA04F328
:1003980045EA030130BDC4F10C04C4F1200220FA7F
:1003A80002F001FA04F340EA0300294630BD21FABD
:1003B80004F0294630BD94F0000F83F4801306BF83
:1003C80081F480110134013D4EE77FEA645C18BF77
:1003D8007FEA655C29D094EA050F08BF90EA020F0E
:1003E80005D054EA000C04BF1946104630BD91EA06
:1003F800030F1EBF0021002030BD5FEA545C05D109
:100408004000494128BF41F0004130BD14F5800447
:100418003CBF01F5801130BD01F0004545F0FE41BB
:1004280041F470014FF0000030BD7FEA645C1ABFF0
:10043800194610467FEA655C1CBF0B46024650EA27
:10044800013406BF52EA033591EA030F41F4002153
:1004580030BD00BF90F0000F04BF0021704730B5D9
:100468004FF4806404F132044FF000054FF00001AE
:1004780050E700BF90F0000F04BF0021704730B56F
:100488004FF4806404F1320410F0004548BF404244
:100498004FF000013EE700BF42004FEAE2014FEA99
:1004A80031014FEA02701FBF12F07F4393F07F4F74
:1004B80081F06051704732F07F4208BF704793F077
:1004C8007F4F04BF41F40021704730B54FF460748A
:1004D80001F0004521F000411CE700BF50EA01028D
:1004E80008BF704730B54FF000050AE050EA010236
:1004F80008BF704730B511F0004502D5404261EBA6
:1005080041014FF4806404F132045FEA915C3FF4E6
:10051800D8AE4FF003025FEADC0C18BF03325FEA83
:10052800DC0C18BF033202EBDC02C2F1200300FA34
:1005380003FC20FA02F001FA03FE40EA0E0021FA59
:1005480002F11444BDE600BF70B54FF0FF0C4CF447
:10055800E06C1CEA11541DBF1CEA135594EA0C0FF9
:1005680095EA0C0F00F0DEF82C4481EA030621EA34
:100578004C5123EA4C5350EA013518BF52EA03356F
:1005880041F4801143F4801338D0A0FB02CE4FF021
:100598000005E1FB02E506F00042E0FB03E54FF051
:1005A8000006E1FB03569CF0000F18BF4EF0010E49
:1005B800A4F1FF04B6F5007F64F5407404D25FEA45
:1005C8004E0E6D4146EB060642EAC62141EA5551F8
:1005D8004FEAC52040EA5E504FEACE2EB4F1FD0C3A
:1005E80088BFBCF5E06F1ED8BEF1004F08BF5FEAB8
:1005F800500E50F1000041EB045170BD06F000466A
:1006080046EA010140EA020081EA0301B4EB5C0416
:10061800C2BFD4EB0C0541EA045170BD41F480110E
:100628004FF0000E013C00F3AB8014F1360FDEBF33
:10063800002001F0004170BDC4F10004203C35DA0F
:100648000C341BDC04F11404C4F1200500FA05F392
:1006580020FA04F001FA05F240EA020001F0004233
:1006680021F0004110EBD37021FA04F642EB0601A9
:100678005EEA430E08BF20EAD37070BDC4F10C04D3
:10068800C4F1200500FA04F320FA05F001FA04F297
:1006980040EA020001F0004110EBD37041F1000183
:1006A8005EEA430E08BF20EAD37070BDC4F120058E
:1006B80000FA05F24EEA020E20FA04F301FA05F2F6
:1006C80043EA020321FA04F001F0004121FA04F29E
:1006D80020EA020000EBD3705EEA430E08BF20EA6E
:1006E800D37070BD94F0000F0FD101F000464000A8
:1006F80041EB010111F4801F08BF013CF7D041EA2A
:10070800060195F0000F18BF704703F0004652002D
:1007180043EB030313F4801F08BF013DF7D043EAFE
:100728000603704794EA0C0F0CEA135518BF95EAB4
:100738000C0F0CD050EA410618BF52EA4306D1D13B
:1007480081EA030101F000414FF0000070BD50EA5A
:10075800410606BF1046194652EA430619D094EAE4
:100768000C0F02D150EA013613D195EA0C0F05D1CE
:1007780052EA03361CBF104619460AD181EA030122
:1007880001F0004141F0FE4141F470014FF00000DA
:1007980070BD41F0FE4141F4780170BD70B54FF075
:1007A800FF0C4CF4E06C1CEA11541DBF1CEA1355F5
:1007B80094EA0C0F95EA0C0F00F0A7F8A4EB0504D7
:1007C80081EA030E52EA03354FEA013100F08880CE
:1007D8004FEA03334FF0805545EA131343EA126397
:1007E8004FEA022245EA111545EA10654FEA00264C
:1007F8000EF000419D4208BF964244F1FD0404F505
:10080800407402D25B084FEA3202B61A65EB030560
:100818005B084FEA32024FF480104FF4002CB6EB1D
:10082800020E75EB030E22BFB61A754640EA0C009D
:100838005B084FEA3202B6EB020E75EB030E22BFDD
:10084800B61A754640EA5C005B084FEA3202B6EB1E
:10085800020E75EB030E22BFB61A754640EA9C00DD
:100868005B084FEA3202B6EB020E75EB030E22BFAD
:10087800B61A754640EADC0055EA060E18D04FEA6B
:10088800051545EA16754FEA06164FEAC30343EA0B
:1008980052734FEAC2025FEA1C1CC0D111F4801FD8
:1008A8000BD141EA00014FF000004FF0004CB6E7D1
:1008B80011F4801F04BF01430020B4F1FD0C88BF70
:1008C800BCF5E06F3FF6AFAEB5EB030C04BFB6EB7B
:1008D800020C5FEA500C50F1000041EB045170BD6E
:1008E8000EF0004E4EEA113114EB5C04C2BFD4EB9B
:1008F8000C0541EA045170BD41F480114FF0000E1F
:10090800013C90E645EA060E8DE60CEA135594EA9A
:100918000C0F08BF95EA0C0F3FF43BAF94EA0C0F9D
:100928000AD150EA01347FF434AF95EA0C0F7FF412
:1009380025AF104619462CE795EA0C0F06D152EA66
:1009480003353FF4FDAE1046194622E750EA41064A
:1009580018BF52EA43067FF4C5AE50EA41047FF45B
:100968000DAF52EA43057FF4EBAE12E74FEA4102BE
:1009780012F5001215D211D56FF47873B3EB6252E9
:1009880012D94FEAC12343F0004343EA505311F010
:10099800004F23FA02F018BF404270474FF00000A2
:1009A800704750EA013005D111F0004008BF6FF0E0
:1009B800004070474FF00000704700BF4FEA410207
:1009C800B2F1E04324BFB3F5001CDCF1FE5C0DD9A5
:1009D80001F0004C4FEAC0024CEA5070B2F1004FEF
:1009E80040EB830008BF20F00100704711F0804FF2
:1009F80021D113F13872BCBF01F00040704741F4B7
:100A080080114FEA5252C2F11802C2F1200C10FABA
:100A18000CF320FA02F018BF40F001004FEAC1239E
:100A28004FEAD32303FA0CFC40EA0C0023FA02F342
:100A38004FEA4303CCE77FEA625307D150EA013318
:100A48001EBF4FF0FE4040F44000704701F00040E8
:100A580040F0FE4040F40000704700BF80B5A0B0F1
:100A680000AF934B1B6B924A43F0010313630223BD
:100A78003B6607233B670923FB6507F15C031946BF
:100A88008C4800F0A9FB0A23FB6507F15C031946B3
:100A9800884800F0A1FB864B5B6C854A43F4807361
:100AA800536403233B6600233B670023FB66002354
:100AB800FB6507F15C0319467E4800F08DFB7E4B11
:100AC8005B687D4A43F4803353607C4B00229A6014
:100AD8007A4B9B68794A43F001039360774B002275
:100AE8005A63764B1B69754A43F007031361704BD1
:100AF8001B6B6F4A43F00203136301233B66002319
:100B08003B670123FB6600237B660123BB6600234A
:100B1800FB670AE0FB6FFB6507F15C031946684851
:100B280000F05AFBFB6F0133FB67FB6F012BF1DD14
:100B38005F4B1B6B5E4A43F00403136300233B6661
:100B480000233B670223FB660023FB6507F15C0378
:100B580019465C4800F040FB554B1B6B544A43F068
:100B68000803136301233B6600233B670223FB66EC
:100B780000237B660123BB660023BB670AE0BB6FCB
:100B8800FB6507F15C0319464F4800F025FBBB6F76
:100B98000133BB67BB6F072BF1DD454B1B6B444A29
:100BA80043F01003136301233B6600233B670223D2
:100BB800FB6600237B660123BB6600237B670AE094
:100BC8007B6FFB6507F15C031946404800F004FBA6
:100BD8007B6F01337B677B6F092BF1DD3C4B7B60BF
:100BE8000023BB600023BB810023FB8100233B82E1
:100BF80000237B820023BB820023FB8200233B83EC
:100C080000237B830023BB830123FB8300233B84D6
:100C180001237B840123BB840023FB8400233B85C1
:100C280000237B850023BB850023FB8500233B86AF
:100C380000237B860023BB860023FB8600233B879B
:100C480000237B870023BB870023FB870023A7F8AB
:100C580040300023A7F842300023A7F8443000238F
:100C6800A7F846300023A7F848300023A7F84A30F1
:100C78000023A7F84C300023A7F84E300023A7F82C
:100C880050300023A7F852306823A7F854300323C4
:100C9800A7F856300023A7F858300023A7F85A3091
:100CA8003B1D184600F00FFE00BF8037BD4680BDD3
:100CB80000380240000002400023014000200140AB
:100CC8000004024000080240000C024000100240EC
:100CD8000010014080B500AF252001F00DFB022176
:100CE800002000F0F1FB0621002000F061FC00BFAD
:100CF80080BD00000000000080B582B000AF244B2A
:100D08009B68234A43F08043936000BF204B1B68D5
:100D180003F00203002BF9D01D4BDB6CFB80FB8832
:100D280019461C4800F0ACFBFB881846FFF7A2FBED
:100D380015A3D3E90023FFF707FC02460B4610462C
:100D480019464FF00002144BFFF728FD02460B46E8
:100D580010461946FFF732FE03463B603868FFF736
:100D68009BFB4FF000020D4BFFF7EEFB02460B46D4
:100D780010461946FFF7FAFD03461BB21846083716
:100D8800BD4680BDAFF300806666666666660A404B
:100D980000200140000C02400000B0400000594013
:100DA80080B582B000AF0346FB80FB8803F0800368
:100DB800002B04D0FB88184600F058F803E0FB88A5
:100DC800184600F005F800BF0837BD4680BD000092
:100DD80080B582B000AF0346FB80FB8803F0600358
:100DE800002B0FD1FB885B109BB203F00F0399B265
:100DF800FB88DBB203F00103DBB21A46184800F0A7
:100E08001DFB28E0FB8803F06003202B0FD1FB8833
:100E18005B109BB203F00F0399B2FB88DBB203F0BF
:100E28000103DBB21A460F4800F008FB13E0FB8809
:100E380003F06003402B0ED1FB885B109BB203F0DC
:100E48000F0399B2FB88DBB203F00103DBB21A4649
:100E5800054800F0F3FA00BF0837BD4680BD00BF63
:100E6800000C0240000402400010024080B485B02B
:100E780000AF0346FB80FB8803F07F03FB8100BFC4
:100E88001437BD465DF8047B7047000080B584B018
:100E980000AF0346FB80FB8840F2FF12934240F00C
:100EA800CE800023FB811FE0FB891946664800F0CD
:100EB800B0FA03463B81FB895B009BB21AB2B7F9D3
:100EC800083013431BB23B813B8919465F4801F048
:100ED800EAF93B891B0A3B813B8919465B4801F0CB
:100EE800E2F9FB890133FB81FB89072BDCD9FFF78A
:100EF80003FF03463B813B8943F080033B813B89E9
:100F08001946524801F0CFF93B891B0A3B813B89BE
:100F180019464E4801F0C7F903214D4800F079FA07
:100F280003463B813B8943F4007343F002033B8152
:100F38003B891946454801F0B6F93B891B0A3B81B4
:100F48003B891946414801F0AEF90421404800F0B8
:100F580060FA03463B813B8943F401733B813B893B
:100F680019463A4801F09FF93B891B0A3B813B89A6
:100F78001946364801F097F90023BB811FE0BB8969
:100F88001946344800F045FA03463B81BB895B00AB
:100F98009AB23B8913439BB243F020033B813B89C0
:100FA80019462A4801F07FF93B891B0A3B813B8996
:100FB8001946264801F077F9BB890133BB81BB8903
:100FC800012BDCD900237B811FE07B89194622484D
:100FD80000F01FFA03463B817B895B009AB23B898C
:100FE80013439BB243F040033B813B8919461748A2
:100FF80001F059F93B891B0A3B813B891946134883
:1010080001F051F97B8901337B817B89092BDCD97C
:101018000021124800F0FDF903463B813B8943F467
:1010280000733B813B891946084801F03CF93B892C
:101038001B0A3B813B891946044801F034F900BF7B
:101048001037BD4680BD00BF000C024000100140B3
:101058000000024000040240001002400008024064
:1010680080B582B000AF114801F033F90346FB8028
:101078000E4801F02EF903461B021AB2B7F90630E2
:1010880013431BB2FB80FB8803F48073002B04D04E
:10109800FB881846FFF7FAFE03E0FB881846FFF7BF
:1010A8007FFE00BF0837BD4680BD00BF001001406D
:1010B80080B582B000AF0021084800F0AAF90346C5
:1010C800FB80FB8803F400739BB21946044801F0C7
:1010D800EAF800BF0837BD4680BD00BF00080240DF
:1010E8000010014080B400AF00BFBD465DF8047B2E
:1010F800704780B400AF00BFBD465DF8047B704701
:1011080080B500AF00F006F8FFF7A8FCFFF7E2FD96
:1011180000BFFDE780B400AF00BFBD465DF8047BAB
:101128007047000080B400AF064BD3F88830054AFA
:1011380043F47003C2F8883000BFBD465DF8047BF5
:10114800704700BF00ED00E0DFF834D0FFF7EAFF9A
:101158000C480D490D4A002302E0D458C45004330A
:10116800C4188C42F9D30A4A0A4C002301E01360E0
:101178000432A242FBD301F0CDF8FFF7C1FF70475C
:1011880000800120000000200000002084230008C7
:10119800000000201C000020FEE7000080B483B09F
:1011A80000AF0346FB7197F90730002B0BDBFB7987
:1011B80003F01F02074997F907305B09012000FA7D
:1011C80002F241F8232000BF0C37BD465DF8047BCE
:1011D800704700BF00E100E080B582B000AF7860E2
:1011E80039603B681B6899B23B685B681A46786847
:1011F80000F047F80346002B02D04FF0FF333CE0E5
:101208003B681B6899B23B689B681A46786800F08F
:101218005BF80346002B02D04FF0FF332DE03B680C
:101228001B6899B23B68DB681A46786800F06DF86D
:101238000346002B02D04FF0FF331EE03B681B68CB
:1012480099B23B681B691A46786800F081F8034632
:10125800002B02D04FF0FF330FE03B681B6899B2B8
:101268003B685B691A46786800F095F80346002BDE
:1012780002D04FF0FF3300E0002318460837BD4680
:1012880080BD80B485B000AFF8600B467A607B8182
:10129800FB681B687A895200032101FA02F2D243E3
:1012A8001A40FB681A60FB681A687B895B007968DA
:1012B80001FA03F31A43FB681A600023184614372F
:1012C800BD465DF8047B704780B485B000AFF86018
:1012D8000B467A607B81FB685B687A89012101FA99
:1012E80002F2D2431A40FB685A60FB685A687B894D
:1012F800796801FA03F31A43FB685A600023184619
:101308001437BD465DF8047B704780B485B000AFE4
:10131800F8600B467A607B81FB689B687A8952008B
:10132800032101FA02F2D2431A40FB689A60FB6873
:101338009A687B895B00796801FA03F31A43FB68B2
:101348009A60002318461437BD465DF8047B704741
:1013580080B485B000AFF8600B467A607B81FB688B
:10136800DB687A895200032101FA02F2D2431A405B
:10137800FB68DA60FB68DA687B895B00796801FAE8
:1013880003F31A43FB68DA60002318461437BD4696
:101398005DF8047B704780B485B000AFF8600B46F9
:1013A8007A607B817B89072B15D8FB681B6A7A8951
:1013B80092000F2101FA02F2D2431A40FB681A6226
:1013C800FB681A6A7B899B00796801FA03F31A4360
:1013D800FB681A6216E0FB685B6A7A89083A920031
:1013E8000F2101FA02F2D2431A40FB685A62FB68E5
:1013F8005A6A7B89083B9B00796801FA03F31A4310
:10140800FB685A62002318461437BD465DF8047B12
:10141800704780B483B000AF78600B467B807B68F0
:101428001A697B8822FA03F3DBB203F00103DBB20B
:1014380018460C37BD465DF8047B704780B483B00E
:1014480000AF78600B467B8013467B707B685B69D6
:101458007A88012101FA02F2D2431A407B685A6164
:101468007B685B6979787A8801FA02F21A437B68AB
:101478005A61002318460C37BD465DF8047B704757
:1014880080B584B000AF78600B467B800023FB609A
:1014980011E07B8803F001037B81FB689BB27A89AA
:1014A800D2B219467868FFF7C9FF7B885B087B8052
:1014B800FB680133FB60FB680E2BEADD002318464E
:1014C8001037BD4680BD000080B483B000AF03462E
:1014D8003960FB803B68002B16D1344B9B68FA8837
:1014E800012101FA02F2D2431146304A0B409360BF
:1014F8002E4B9B68FA88012101FA02F211462B4A09
:101508000B43936000234AE03B68012B16D1274B1D
:10151800DB68FA88012101FA02F2D2431146234A14
:101528000B40D360214BDB68FA88012101FA02F2F3
:1015380011461E4A0B43D360002330E03B68022B60
:101548002BD11A4B9B68FA88012101FA02F2D24387
:101558001146164A0B409360144B9B68FA88012188
:1015680001FA02F21146114A0B4393600F4BDB68F4
:10157800FA88012101FA02F2D24311460B4A0B40C4
:10158800D3600A4BDB68FA88012101FA02F211469E
:10159800064A0B43D360002301E04FF0FF3318469F
:1015A8000C37BD465DF8047B704700BF003C014026
:1015B80080B582B000AF03460A46FB8013467B71B4
:1015C8000F4B1B68FA88012101FA02F2D243114637
:1015D8000B4A0B4013600A4B1B68FA88012101FA79
:1015E80002F21146064A0B43136097F90530184674
:1015F800FFF7D4FD002318460837BD4680BD00BF5D
:10160800003C014080B483B000AF0346FB7197F9FA
:101618000730002B0BDBFB7903F01F02074997F912
:1016280007305B09012000FA02F241F8232000BFCD
:101638000C37BD465DF8047B704700BF00E100E051
:1016480080B483B000AF78607B68022B17D07B68CA
:10165800022B1BD87B68002B03D07B68012B07D09B
:1016680014E00D4B5B6C0C4A43F0100353640DE01F
:10167800094B1B6C084A43F40033136406E0064B1D
:101688005B6C054A43F02003536400BF00BF0C376E
:10169800BD465DF8047B70470038024080B584B0D1
:1016A80000AFF860084611461A4603467B810B4690
:1016B8003B811346FB807B891946F86800F0D0F916
:1016C8003B891946F86800F0E4F9FB881946F86880
:1016D80000F0F8F93B8B1946F86800F00CFABB8B60
:1016E8001946F86800F020FA3B8C1946F86800F0B3
:1016F80034FABB8C1946F86800F048FA3B8D194655
:10170800F86800F05CFABB8D1946F86800F070FACA
:101718003B8E1946F86800F084FABB8E1946F868C3
:1017280000F098FA3B8F1946F86800F0ACFABB8FC6
:101738001946F86800F0C0FAB7F840301946F8685A
:1017480000F0D3FAB7F844301946F86800F0E6FA22
:1017580000BF1037BD4680BD80B584B000AFF860CB
:10176800084611461A4603467B810B463B811346C1
:10177800FB807B891946F86800F0E8FA3B8919462E
:10178800F86800F0FCFAFB881946F86800F010FBCE
:101798003B8B1946F86800F024FBBB8B1946F868A8
:1017A80000F038FB3B8C1946F86800F04CFBBB8C0A
:1017B8001946F86800F060FB3B8D1946F86800F0A0
:1017C80074FBBB8D1946F86800F088FB00BF103722
:1017D800BD4680BD80B584B000AFF86008461146AC
:1017E8001A4603467B810B463B811346FB807B8967
:1017F8001946F86800F08AFB3B891946F86800F03A
:101808009EFBFB881946F86800F0B2FB3B8B194633
:10181800F86800F0C6FBBB8B1946F86800F0DAFBE5
:101828003B8C1946F86800F0EEFBBB8C1946F8684B
:1018380000F002FC3B8D1946F86800F016FCBB8DE1
:101848001946F86800F02AFC3B8E1946F86800F043
:101858003EFCBB8E1946F86800F052FC3B8F1946D7
:10186800F86800F066FC00BF1037BD4680BD80B543
:1018780082B000AF78600B467B8013463B807B8844
:101888001946786800F06DFC3B881946786800F0C6
:1018980083FC00BF0837BD4680BD80B582B000AF6D
:1018A80078600B467B8013463B807B8819467868B6
:1018B80000F08AFC3B881946786800F09EFC00BF5F
:1018C8000837BD4680BD2DE9F04194B00CAFF861F2
:1018D800FB695B681846FFF7B3FEFB691B680021CC
:1018E800184600F0D6F8FB691868FB69B3F8501081
:1018F800FB69B3F852301A46FFF7B9FFFB691B685A
:10190800BB61FB69B3F808C0FB69B3F80AE0FB697F
:10191800B3F80C80FB69D889FB691C8AFB695D8A6E
:10192800FB699E8AFB69DA8A7A61FB69198B3961DE
:10193800FB695B8BFB60FB699A8BBA60FB69D98B8F
:101948007960FB69198CFB695A8CFB699B8C0B933A
:101958000A92099179680891BA680792FB68069318
:10196800396905917A690492039602950194009069
:10197800434672466146B869FFF790FEFB691E68E8
:10198800FB69B3F826C0FB69B3F828E0FB69B3F834
:101998002A80FB699B8DFA69D28DF969098EF869ED
:1019A800408EFC69A48EFD69ED8E05950494039024
:1019B8000291019200934346724661463046FFF712
:1019C800CBFEFB691B68BB61FB69B3F838C0FB69D8
:1019D800B3F83AE0FB69B3F83C80FB69DB8FFA693E
:1019E800B2F840207A61F969B1F84210F869B0F8A4
:1019F8004400FC69B4F84640FD69B5F84850FE69F2
:101A0800B6F84A60FA69B2F84C203A61FA69B2F855
:101A18004E2008923A690792069605950494039019
:101A280002917A6901920093434672466146B86909
:101A3800FFF7D0FEFB691868FB69B3F85410FB691F
:101A4800B3F856301A46FFF728FFFB691B680121D7
:101A5800184600F01EF800BF2037BD46BDE8F081EB
:101A680080B483B000AF78600B467B807B68DB680E
:101A780023F400427B68DA607B68DA687B88DB03E2
:101A88001A437B68DA6000BF0C37BD465DF8047BFB
:101A9800704780B483B000AF78600B467B807B686A
:101AA800DB6823F400527B68DA607B68DA687B883D
:101AB8005B031A437B68DA6000BF0C37BD465DF8EC
:101AC800047B704780B483B000AF78600B467B809E
:101AD8007B68DB6823F480527B68DA607B68DA68AD
:101AE8007B881B031A437B68DA6000BF0C37BD464E
:101AF8005DF8047B704780B483B000AF78600B4614
:101B08007B807B68DB6823F400627B68DA607B6833
:101B1800DA687B88DB021A437B68DA6000BF0C371F
:101B2800BD465DF8047B704780B483B000AF786031
:101B38000B467B807B68DB6823F480627B68DA6015
:101B48007B68DA687B889B021A437B68DA6000BF8F
:101B58000C37BD465DF8047B704780B483B000AF96
:101B680078600B467B807B68DB6823F400727B68B7
:101B7800DA607B68DA687B885B021A437B68DA6024
:101B880000BF0C37BD465DF8047B704780B483B056
:101B980000AF78600B467B807B68DB6823F480723B
:101BA8007B68DA607B68DA687B881B021A437B688B
:101BB800DA6000BF0C37BD465DF8047B704780B41F
:101BC80083B000AF78600B467B807B68DB6823F0CE
:101BD80080027B68DA607B68DA687B88DB011A43FD
:101BE8007B68DA6000BF0C37BD465DF8047B704740
:101BF80080B483B000AF78600B467B807B68DB687D
:101C080023F040027B68DA607B68DA687B889B0196
:101C18001A437B68DA6000BF0C37BD465DF8047B69
:101C2800704780B483B000AF78600B467B807B68D8
:101C3800DB6823F020027B68DA607B68DA687B88DF
:101C48005B011A437B68DA6000BF0C37BD465DF85C
:101C5800047B704780B483B000AF78600B467B800C
:101C68007B68DB6823F010027B68DA607B68DA68DF
:101C78007B881B011A437B68DA6000BF0C37BD46BE
:101C88005DF8047B704780B483B000AF78600B4682
:101C98007B807B68DB6823F008027B68DA607B68FE
:101CA800DA687B88DB001A437B68DA6000BF0C3790
:101CB800BD465DF8047B704780B483B000AF7860A0
:101CC8000B467B807B68DB6823F004027B68DA6064
:101CD8007B68DA687B889B001A437B68DA6000BF00
:101CE8000C37BD465DF8047B704780B483B000AF05
:101CF80078600B467B807B68DB6823F002027B6898
:101D0800DA607B68DA687B885B001A437B68DA6094
:101D180000BF0C37BD465DF8047B704780B483B0C4
:101D280000AF78600B467B807B68DB6823F001029C
:101D38007B68DA607B68DA687B881A437B68DA60DC
:101D480000BF0C37BD465DF8047B704780B483B094
:101D580000AF78600B467B807B681B6923F4804268
:101D68007B681A617B681A697B889B031A437B68C6
:101D78001A6100BF0C37BD465DF8047B704780B41C
:101D880083B000AF78600B467B807B681B6923F4C7
:101D980040527B681A617B681A697B881B031A4367
:101DA8007B681A6100BF0C37BD465DF8047B70473D
:101DB80080B483B000AF78600B467B807B681B697A
:101DC80023F400627B681A617B681A697B88DB02EE
:101DD8001A437B681A6100BF0C37BD465DF8047B67
:101DE800704780B483B000AF78600B467B807B6817
:101DF8001B6923F480627B681A617B681A697B8897
:101E08009B021A437B681A6100BF0C37BD465DF818
:101E1800047B704780B483B000AF78600B467B804A
:101E28007B681B6923F400727B681A617B681A69F6
:101E38007B885B021A437B681A6100BF0C37BD467A
:101E48005DF8047B704780B483B000AF78600B46C0
:101E58007B807B681B6923F480727B681A617B68CE
:101E68001A697B881B021A437B681A6100BF0C370A
:101E7800BD465DF8047B704780B483B000AF7860DE
:101E88000B467B807B681B6923F040027B681A61E4
:101E98007B681A697B889B011A437B681A6100BFBB
:101EA8000C37BD465DF8047B704780B483B000AF43
:101EB80078600B467B807B681B6923F020027B6877
:101EC8001A617B681A697B885B011A437B681A610F
:101ED80000BF0C37BD465DF8047B704780B483B003
:101EE80000AF78600B467B807B681B6923F00F028C
:101EF8007B681A617B681A697B881A437B681A6158
:101F080000BF0C37BD465DF8047B704780B483B0D2
:101F180000AF78600B467B807B685B6923F40062C6
:101F28007B685A617B685A697B88DB021A437B6845
:101F38005A6100BF0C37BD465DF8047B704780B41A
:101F480083B000AF78600B467B807B685B6923F4C5
:101F580080627B685A617B685A697B889B021A4356
:101F68007B685A6100BF0C37BD465DF8047B70473B
:101F780080B483B000AF78600B467B807B685B6978
:101F880023F400727B685A617B685A697B885B021C
:101F98001A437B685A6100BF0C37BD465DF8047B65
:101FA800704780B483B000AF78600B467B807B6855
:101FB8005B6923F480727B685A617B685A697B8805
:101FC8001B021A437B685A6100BF0C37BD465DF897
:101FD800047B704780B483B000AF78600B467B8089
:101FE8007B685B6923F080027B685A617B685A6969
:101FF8007B88DB011A437B685A6100BF0C37BD46FA
:102008005DF8047B704780B483B000AF78600B46FE
:102018007B807B685B6923F040027B685A617B6840
:102028005A697B889B011A437B685A6100BF0C3749
:10203800BD465DF8047B704780B483B000AF78601C
:102048000B467B807B685B6923F020027B685A61C2
:102058007B685A697B885B011A437B685A6100BFB9
:102068000C37BD465DF8047B704780B483B000AF81
:1020780078600B467B807B685B6923F010027B6885
:102088005A617B685A697B881B011A437B685A61CD
:1020980000BF0C37BD465DF8047B704780B483B041
:1020A80000AF78600B467B807B685B6923F0080291
:1020B8007B685A617B685A697B88DB001A437B68B6
:1020C8005A6100BF0C37BD465DF8047B704780B489
:1020D80083B000AF78600B467B807B685B6923F038
:1020E80004027B685A617B685A697B889B001A43A3
:1020F8007B685A6100BF0C37BD465DF8047B7047AA
:1021080080B483B000AF78600B467B807B685B69E6
:1021180023F002027B685A617B685A697B885B00FE
:102128001A437B685A6100BF0C37BD465DF8047BD3
:10213800704780B483B000AF78600B467B807B68C3
:102148005B6923F001027B685A617B685A697B8866
:102158001A437B685A6100BF0C37BD465DF8047BA3
:10216800704780B483B000AF78600B467B807B6893
:102178009B6823F47F4323F0F0037A6893607B68BD
:102188009A687B881B011A437B689A6000BF0C37EA
:10219800BD465DF8047B704780B483B000AF7860BB
:1021A8000B467B807B689B6823F00F027B689A60F4
:1021B8007B689A687B881A437B689A6000BF0C37F3
:1021C800BD465DF8047B704780B483B000AF78608B
:1021D8000B467B807B689B6923F47F427B689A610E
:1021E8007B689A697B881B021A437B689A6100BFE7
:1021F8000C37BD465DF8047B704780B483B000AFF0
:1022080078600B467B807B689B6923F0FF027B68C4
:102218009A617B689A697B881A437B689A6100BFD8
:102228000C37BD465DF8047B704780B483B000AFBF
:1022380078607B681B68DB099BB203F001039BB2E3
:1022480018460C37BD465DF8047B704780B483B0F0
:1022580000AF78607B681B685B099BB203F00103E1
:102268009BB218460C37BD465DF8047B704780B4B6
:1022780083B000AF78600B467B807A887B685A60B1
:1022880000BF0C37BD465DF8047B704780B483B04F
:1022980000AF78607B685B689BB218460C37BD4618
:1022A8005DF8047B704780B582B000AF78600B465C
:1022B8007B8000BF7868FFF7B8FF0346002BF9D092
:1022C8007B8819467868FFF7D2FF00BF0837BD46FC
:1022D80080BD80B582B000AF786000BF7868FFF736
:1022E800B5FF0346002BF9D07868FFF7CFFF034608
:1022F80018460837BD4680BD80B582B000AF03469A
:10230800FB7197F907301846FFF77CF900BF0837CB
:10231800BD4680BD70B50D4D0D4C641BA410002644
:10232800A64209D10B4D0C4C00F018F8641BA41000
:102338000026A64205D170BD55F8043B98470136E2
:10234800EEE755F8043B98470136F2E77C2300088E
:102358007C2300087C23000880230008F8B500BF10
:10236800F8BC08BC9E467047F8B500BFF8BC08BC6E
:042378009E467047C6
:04237C00BD01000897
:0423800099010008B7
:04000005080011518D
:00000001FF
