:020000040800F2
:1000000000800120A50A0008F50A0008F50A00088A
:10001000F50A0008F50A0008F50A000800000000CB
:10002000000000000000000000000000F50A0008C9
:10003000F50A000800000000F50A0008F50A0008AB
:10004000F50A0008F50A0008F50A0008F50A000894
:10005000F50A0008F50A0008B9090008F50A0008C1
:10006000F50A0008ED090008290A0008F50A000849
:10007000F50A0008F50A0008F50A0008F50A000864
:10008000F50A0008F50A0008F50A0008000000005B
:10009000000000000000000000000000F50A000859
:1000A000F50A0008F50A0008F50A0008F50A000834
:1000B000F50A0008F50A0008F50A0008F50A000824
:1000C000F50A0008F50A0008F50A0008F50A000814
:1000D000F50A000869090008F50A00080000000098
:1000E000F50A0008F50A0008F50A000800000000FB
:1000F000000000000000000000000000F50A0008F9
:1001000000000000F50A0008F50A0008F50A0008DA
:1001100000000000000000000000000000000000DF
:10012000F50A0008F50A0008F50A0008F50A0008B3
:10013000F50A0008000000000000000000000000B8
:10014000000000000000000000000000F50A0008A8
:10015000F50A0008F50A0008F50A0008F50A000883
:10016000F50A0008F50A0008000000000000000081
:10017000000000000000000000000000000000007F
:1001800000000000F50A0008000000000000000068
:04019000F50A000864
:1001940010B5054C237833B9044B13B10448AFF3BD
:1001A40000800123237010BD000000200000000027
:1001B400701C000808B5034B1BB103490348AFF397
:1001C400008008BD0000000004000020701C00082E
:1001D40080B5A4B000AF8D4B1B6B8C4A43F0010378
:1001E400136302233B6607233B670923FB6507F17F
:1001F4005C031946864800F09BFC0A23FB6507F163
:100204005C031946824800F093FC01233B660123FA
:10021400FB660023C7F88C300DE0D7F88C30FB6503
:1002240007F15C0319467A4800F082FCD7F88C3059
:100234000133C7F88C30D7F88C30042BEDDD012264
:100244000221734800F0A6FD0023C7F888301FE0A0
:100254000C22D7F8883042FA03F3DBB203F001032F
:10026400DBB21A4600216A4800F094FD0122012104
:10027400674800F08FFD0A2000F06DF9002201218B
:10028400634800F087FDD7F888300133C7F8883019
:10029400D7F88830072BDBDD0023C7F884301FE054
:1002A4000222D7F8843042FA03F3DBB203F00103ED
:1002B400DBB21A460021564800F06CFD01220121F0
:1002C400534800F067FD0A2000F045F9002201219F
:1002D4004F4800F05FFDD7F884300133C7F884300D
:1002E400D7F88430072BDBDD0023C7F880301FE00C
:1002F400EE22D7F8803042FA03F3DBB203F00103B5
:10030400DBB21A460021424800F044FD01220121DB
:100314003F4800F03FFD0A2000F01DF900220121B2
:100324003B4800F037FDD7F880300133C7F8803000
:10033400D7F88030072BDBDD344B1B6B334A43F09B
:100344000203136301233B6600233B670123FB661F
:1003540000237B660123BB660023FB670AE0FB6F77
:10036400FB6507F15C0319462A4800F0E1FBFB6FCB
:100374000133FB67FB6F012BF1DD244B1B6B234A1D
:1003840043F00403136300233B6600233B6702230B
:10039400FB660023FB6507F15C0319461E4800F069
:1003A400C7FB1A4B1B6B194A43F008031363012361
:1003B4003B6600233B670223FB6600237B66012325
:1003C400BB660023BB670AE0BB6FFB6507F15C03F8
:1003D4001946124800F0ACFBBB6F0133BB67BB6F1F
:1003E400072BF1DD094B1B6B084A43F01003136321
:1003F40001233B6600233B670223FB6600237B66E5
:100404000123BB6600237B6715E000BF0038024070
:10041400000002400004024000080240000C0240B8
:100424007B6FFB6507F15C031946394800F080FBDC
:100434007B6F01337B677B6F092BF1DD354B7B6071
:100444000023BB600023BB810023FB8100233B828C
:1004540000237B820023BB820023FB8200233B8397
:1004640000237B830023BB830123FB8300233B8482
:1004740001237B840123BB840023FB8400233B856D
:1004840000237B850023BB850023FB8500233B865B
:1004940000237B860023BB860023FB8600233B8747
:1004A40000237B870023BB870023FB870023A7F857
:1004B40040300023A7F842300023A7F8443000233B
:1004C400A7F846300023A7F848300023A7F84A309D
:1004D4000023A7F84C300023A7F84E300023A7F8D8
:1004E40050300023A7F852306823A7F85430032370
:1004F400A7F856300023A7F858300023A7F85A303D
:100504003B1D184600F067FE00BF9037BD4680BD16
:10051400001002400010014080B500AF252001F01A
:1005240073FB0221032000F057FC0921032000F093
:10053400C7FC0221042000F04FFC0A21042000F033
:10054400BFFC0221002000F047FC0621002000F03F
:10055400B7FC00BF80BD80B485B000AF78607B6815
:100564001B01FB6000E000BFFB685A1EFA60002B11
:10057400F9D100BF00BF1437BD465DF8047B704756
:1005840080B586B000AF01220021454800F025FB6C
:1005940000237B611CE0AA227B6942FA03F3DBB2ED
:1005A40003F00103DBB21A4600213D4800F0F2FBE0
:1005B400012201213A4800F0EDFB0A20FFF7CBFFAE
:1005C40000220121364800F0E5FB7B6901337B61A1
:1005D4007B69072BDFDD00220021314800F0FDFAA2
:1005E4000023FB740023FB601EE0012201212C4840
:1005F40000F0D0FB0A20FFF7AEFF0021284800F0EE
:10060400B4FB03461A46FB6802FA03F35AB297F99D
:10061400133013435BB2FB7400220121204800F025
:10062400B9FBFB680133FB60FB68072BDDDD0023AE
:10063400FB7200237B601EE001220121184800F0B8
:10064400A9FB0A20FFF787FF0021154800F08DFB66
:1006540003461A467B6802FA03F35AB297F90B3041
:1006640013435BB2FB72002201210D4800F092FBA0
:100674007B6801337B607B68072BDDDDFB7A1B0223
:100684001AB2FB7C1BB213437B80B7F90230DA0F3A
:1006940013445B101BB218461837BD4680BD00BF1B
:1006A4000000024080B582B000AF0346FB80FB88A7
:1006B40003F08003002B04D0FB88184600F058F8A0
:1006C40003E0FB88184600F005F800BF0837BD4674
:1006D40080BD000080B582B000AF0346FB80FB887C
:1006E40003F06003002B0FD1FB885B109BB203F077
:1006F4000F0399B2FB88DBB203F00103DBB21A46A5
:10070400184800F047FB28E0FB8803F06003202B27
:100714000FD1FB885B109BB203F00F0399B2FB88E7
:10072400DBB203F00103DBB21A460F4800F032FBE0
:1007340013E0FB8803F06003402B0ED1FB885B10B1
:100744009BB203F00F0399B2FB88DBB203F0010301
:10075400DBB21A46054800F01DFB00BF0837BD4652
:1007640080BD00BF000C02400004024000100240A3
:1007740080B485B000AF0346FB80FB8803F07F03A1
:10078400FB8100BF1437BD465DF8047B7047000051
:1007940080B584B000AF0346FB80FB8840F2FF12B3
:1007A400934240F0CE800023FB811FE0FB89194671
:1007B400664800F0DAFA03463B81FB895B009BB292
:1007C4001AB2B7F9083013431BB23B813B8919466F
:1007D4005F4801F0F0F93B891B0A3B813B891946CC
:1007E4005B4801F0E8F9FB890133FB81FB89072BA6
:1007F400DCD9FFF7C5FE03463B813B8943F0800308
:100804003B813B891946524801F0D5F93B891B0AC3
:100814003B813B8919464E4801F0CDF903214D48EF
:1008240000F0A3FA03463B813B8943F4007343F091
:1008340002033B813B891946454801F0BCF93B89D9
:100844001B0A3B813B891946414801F0B4F9042154
:10085400404800F08AFA03463B813B8943F4017324
:100864003B813B8919463A4801F0A5F93B891B0AAB
:100874003B813B891946364801F09DF90023BB8131
:100884001FE0BB891946344800F06FFA03463B81E8
:10089400BB895B009AB23B8913439BB243F02003AC
:1008A4003B813B8919462A4801F085F93B891B0A9B
:1008B4003B813B891946264801F07DF9BB89013308
:1008C400BB81BB89012BDCD900237B811FE07B89A1
:1008D4001946224800F049FA03463B817B895B00B4
:1008E4009AB23B8913439BB243F040033B813B895B
:1008F4001946174801F05FF93B891B0A3B813B8984
:100904001946134801F057F97B8901337B817B89B0
:10091400092BDCD90021124800F027FA03463B8159
:100924003B8943F400733B813B891946084801F035
:1009340042F93B891B0A3B813B891946044801F073
:100944003AF900BF1037BD4680BD00BF000C02401D
:100954000010014000000240000402400010024068
:100964000008024080B582B000AF114801F039F9A7
:100974000346FB800E4801F034F903461B021AB209
:10098400B7F9063013431BB2FB80FB8803F4807372
:10099400002B04D0FB881846FFF7FAFE03E0FB881F
:1009A4001846FFF77FFE00BF0837BD4680BD00BF75
:1009B4000010014080B582B000AF0021084800F06B
:1009C400D4F90346FB80FB8803F400739BB21946F9
:1009D400044801F0F0F800BF0837BD4680BD00BFF1
:1009E400000802400010014080B582B000AF03212E
:1009F4000A4800F0BAF90346FB80FB8823F4FE732F
:100A040023F001039B059B0D9BB21946044801F09A
:100A1400D2F800BF0837BD4680BD00BF00000240C9
:100A24000010014080B582B000AF0421084800F0F6
:100A34009CF90346FB80FB8803F401739BB21946BF
:100A4400044801F0B8F800BF0837BD4680BD00BFB8
:100A5400000002400010014080B500AF00F006F82D
:100A6400FFF7B6FBFFF758FD00BFFDE780B400AF0A
:100A740000BFBD465DF8047B7047000080B400AF42
:100A8400064BD3F88830054A43F47003C2F8883023
:100A940000BFBD465DF8047B704700BF00ED00E079
:100AA400DFF834D0FFF7EAFF0C480D490D4A002364
:100AB40002E0D458C4500433C4188C42F9D30A4A0F
:100AC4000A4C002301E013600432A242FBD301F07C
:100AD400A9F8FFF7C1FF7047008001200000002043
:100AE40000000020901C0008000000201C000020D2
:100AF400FEE7000080B483B000AF0346FB7197F9B2
:100B04000730002B0BDBFB7903F01F02074997F931
:100B140007305B09012000FA02F241F8232000BFEC
:100B24000C37BD465DF8047B704700BF00E100E070
:100B340080B582B000AF786039603B681B6899B2B9
:100B44003B685B681A46786800F047F80346002B58
:100B540002D04FF0FF333CE03B681B6899B23B681E
:100B64009B681A46786800F05BF80346002B02D0B5
:100B74004FF0FF332DE03B681B6899B23B68DB689C
:100B84001A46786800F06DF80346002B02D04FF047
:100B9400FF331EE03B681B6899B23B681B691A4629
:100BA400786800F081F80346002B02D04FF0FF3341
:100BB4000FE03B681B6899B23B685B691A4678682A
:100BC40000F095F80346002B02D04FF0FF3300E00D
:100BD400002318460837BD4680BD80B485B000AFF9
:100BE400F8600B467A607B81FB681B687A89520047
:100BF400032101FA02F2D2431A40FB681A60FB682F
:100C04001A687B895B00796801FA03F31A43FB686D
:100C14001A60002318461437BD465DF8047B7047FC
:100C240080B485B000AFF8600B467A607B81FB68C6
:100C34005B687A89012101FA02F2D2431A40FB6807
:100C44005A60FB685A687B89796801FA03F31A438E
:100C5400FB685A60002318461437BD465DF8047BD0
:100C6400704780B485B000AFF8600B467A607B8132
:100C7400FB689B687A895200032101FA02F2D2438D
:100C84001A40FB689A60FB689A687B895B00796804
:100C940001FA03F31A43FB689A60002318461437D9
:100CA400BD465DF8047B704780B485B000AFF86042
:100CB4000B467A607B81FB68DB687A8952000321EA
:100CC40001FA02F2D2431A40FB68DA60FB68DA6880
:100CD4007B895B00796801FA03F31A43FB68DA60E5
:100CE400002318461437BD465DF8047B704780B472
:100CF40085B000AFF8600B467A607B817B89072B57
:100D040015D8FB681B6A7A8992000F2101FA02F256
:100D1400D2431A40FB681A62FB681A6A7B899B00FB
:100D2400796801FA03F31A43FB681A6216E0FB6858
:100D34005B6A7A89083A92000F2101FA02F2D243DF
:100D44001A40FB685A62FB685A6A7B89083B9B001D
:100D5400796801FA03F31A43FB685A6200231846C0
:100D64001437BD465DF8047B704780B483B000AF90
:100D740078600B467B807B681A697B8822FA03F3D0
:100D8400DBB203F00103DBB218460C37BD465DF855
:100D9400047B704780B483B000AF78600B467B80DF
:100DA40013467B707B685B697A88012101FA02F241
:100DB400D2431A407B685A617B685B6979787A8888
:100DC40001FA02F21A437B685A61002318460C3771
:100DD400BD465DF8047B704780B483B000AF034622
:100DE4003960FB803B68002B16D1344B9B68FA8832
:100DF400012101FA02F2D2431146304A0B409360BA
:100E04002E4B9B68FA88012101FA02F211462B4A03
:100E14000B43936000234AE03B68012B16D1274B18
:100E2400DB68FA88012101FA02F2D2431146234A0F
:100E34000B40D360214BDB68FA88012101FA02F2EE
:100E440011461E4A0B43D360002330E03B68022B5B
:100E54002BD11A4B9B68FA88012101FA02F2D24382
:100E64001146164A0B409360144B9B68FA88012183
:100E740001FA02F21146114A0B4393600F4BDB68EF
:100E8400FA88012101FA02F2D24311460B4A0B40BF
:100E9400D3600A4BDB68FA88012101FA02F2114699
:100EA400064A0B43D360002301E04FF0FF3318469A
:100EB4000C37BD465DF8047B704700BF003C014021
:100EC40080B582B000AF03460A46FB8013467B71AF
:100ED4000F4B1B68FA88012101FA02F2D243114632
:100EE4000B4A0B4013600A4B1B68FA88012101FA74
:100EF40002F21146064A0B43136097F9053018466F
:100F0400FFF7F8FD002318460837BD4680BD00BF33
:100F1400003C014080B483B000AF0346FB7197F9F5
:100F24000730002B0BDBFB7903F01F02074997F90D
:100F340007305B09012000FA02F241F8232000BFC8
:100F44000C37BD465DF8047B704700BF00E100E04C
:100F540080B483B000AF78607B68022B17D07B68C5
:100F6400022B1BD87B68002B03D07B68012B07D096
:100F740014E00D4B5B6C0C4A43F0100353640DE01A
:100F8400094B1B6C084A43F40033136406E0064B18
:100F94005B6C054A43F02003536400BF00BF0C3769
:100FA400BD465DF8047B70470038024080B584B0CC
:100FB40000AFF860084611461A4603467B810B468B
:100FC4003B811346FB807B891946F86800F0D0F911
:100FD4003B891946F86800F0E4F9FB881946F8687B
:100FE40000F0F8F93B8B1946F86800F00CFABB8B5B
:100FF4001946F86800F020FA3B8C1946F86800F0AE
:1010040034FABB8C1946F86800F048FA3B8D19464F
:10101400F86800F05CFABB8D1946F86800F070FAC5
:101024003B8E1946F86800F084FABB8E1946F868BE
:1010340000F098FA3B8F1946F86800F0ACFABB8FC1
:101044001946F86800F0C0FAB7F840301946F86855
:1010540000F0D3FAB7F844301946F86800F0E6FA1D
:1010640000BF1037BD4680BD80B584B000AFF860C6
:10107400084611461A4603467B810B463B811346BC
:10108400FB807B891946F86800F0E8FA3B89194629
:10109400F86800F0FCFAFB881946F86800F010FBC9
:1010A4003B8B1946F86800F024FBBB8B1946F868A3
:1010B40000F038FB3B8C1946F86800F04CFBBB8C05
:1010C4001946F86800F060FB3B8D1946F86800F09B
:1010D40074FBBB8D1946F86800F088FB00BF10371D
:1010E400BD4680BD80B584B000AFF86008461146A7
:1010F4001A4603467B810B463B811346FB807B8962
:101104001946F86800F08AFB3B891946F86800F034
:101114009EFBFB881946F86800F0B2FB3B8B19462E
:10112400F86800F0C6FBBB8B1946F86800F0DAFBE0
:101134003B8C1946F86800F0EEFBBB8C1946F86846
:1011440000F002FC3B8D1946F86800F016FCBB8DDC
:101154001946F86800F02AFC3B8E1946F86800F03E
:101164003EFCBB8E1946F86800F052FC3B8F1946D2
:10117400F86800F066FC00BF1037BD4680BD80B53E
:1011840082B000AF78600B467B8013463B807B883F
:101194001946786800F06DFC3B881946786800F0C1
:1011A40083FC00BF0837BD4680BD80B582B000AF68
:1011B40078600B467B8013463B807B8819467868B1
:1011C40000F08AFC3B881946786800F09EFC00BF5A
:1011D4000837BD4680BD2DE9F04194B00CAFF861ED
:1011E400FB695B681846FFF7B3FEFB691B680021C7
:1011F400184600F0D6F8FB691868FB69B3F850107C
:10120400FB69B3F852301A46FFF7B9FFFB691B6854
:10121400BB61FB69B3F808C0FB69B3F80AE0FB697A
:10122400B3F80C80FB69D889FB691C8AFB695D8A69
:10123400FB699E8AFB69DA8A7A61FB69198B3961D9
:10124400FB695B8BFB60FB699A8BBA60FB69D98B8A
:101254007960FB69198CFB695A8CFB699B8C0B9335
:101264000A92099179680891BA680792FB68069313
:10127400396905917A690492039602950194009064
:10128400434672466146B869FFF790FEFB691E68E3
:10129400FB69B3F826C0FB69B3F828E0FB69B3F82F
:1012A4002A80FB699B8DFA69D28DF969098EF869E8
:1012B400408EFC69A48EFD69ED8E0595049403901F
:1012C4000291019200934346724661463046FFF70D
:1012D400CBFEFB691B68BB61FB69B3F838C0FB69D3
:1012E400B3F83AE0FB69B3F83C80FB69DB8FFA6939
:1012F400B2F840207A61F969B1F84210F869B0F89F
:101304004400FC69B4F84640FD69B5F84850FE69EC
:10131400B6F84A60FA69B2F84C203A61FA69B2F850
:101324004E2008923A690792069605950494039014
:1013340002917A6901920093434672466146B86904
:10134400FFF7D0FEFB691868FB69B3F85410FB691A
:10135400B3F856301A46FFF728FFFB691B680121D2
:10136400184600F01EF800BF2037BD46BDE8F081E6
:1013740080B483B000AF78600B467B807B68DB6809
:1013840023F400427B68DA607B68DA687B88DB03DD
:101394001A437B68DA6000BF0C37BD465DF8047BF6
:1013A400704780B483B000AF78600B467B807B6865
:1013B400DB6823F400527B68DA607B68DA687B8838
:1013C4005B031A437B68DA6000BF0C37BD465DF8E7
:1013D400047B704780B483B000AF78600B467B8099
:1013E4007B68DB6823F480527B68DA607B68DA68A8
:1013F4007B881B031A437B68DA6000BF0C37BD4649
:101404005DF8047B704780B483B000AF78600B460E
:101414007B807B68DB6823F400627B68DA607B682E
:10142400DA687B88DB021A437B68DA6000BF0C371A
:10143400BD465DF8047B704780B483B000AF78602C
:101444000B467B807B68DB6823F480627B68DA6010
:101454007B68DA687B889B021A437B68DA6000BF8A
:101464000C37BD465DF8047B704780B483B000AF91
:1014740078600B467B807B68DB6823F400727B68B2
:10148400DA607B68DA687B885B021A437B68DA601F
:1014940000BF0C37BD465DF8047B704780B483B051
:1014A40000AF78600B467B807B68DB6823F4807236
:1014B4007B68DA607B68DA687B881B021A437B6886
:1014C400DA6000BF0C37BD465DF8047B704780B41A
:1014D40083B000AF78600B467B807B68DB6823F0C9
:1014E40080027B68DA607B68DA687B88DB011A43F8
:1014F4007B68DA6000BF0C37BD465DF8047B70473B
:1015040080B483B000AF78600B467B807B68DB6877
:1015140023F040027B68DA607B68DA687B889B0191
:101524001A437B68DA6000BF0C37BD465DF8047B64
:10153400704780B483B000AF78600B467B807B68D3
:10154400DB6823F020027B68DA607B68DA687B88DA
:101554005B011A437B68DA6000BF0C37BD465DF857
:10156400047B704780B483B000AF78600B467B8007
:101574007B68DB6823F010027B68DA607B68DA68DA
:101584007B881B011A437B68DA6000BF0C37BD46B9
:101594005DF8047B704780B483B000AF78600B467D
:1015A4007B807B68DB6823F008027B68DA607B68F9
:1015B400DA687B88DB001A437B68DA6000BF0C378B
:1015C400BD465DF8047B704780B483B000AF78609B
:1015D4000B467B807B68DB6823F004027B68DA605F
:1015E4007B68DA687B889B001A437B68DA6000BFFB
:1015F4000C37BD465DF8047B704780B483B000AF00
:1016040078600B467B807B68DB6823F002027B6892
:10161400DA607B68DA687B885B001A437B68DA608F
:1016240000BF0C37BD465DF8047B704780B483B0BF
:1016340000AF78600B467B807B68DB6823F0010297
:101644007B68DA607B68DA687B881A437B68DA60D7
:1016540000BF0C37BD465DF8047B704780B483B08F
:1016640000AF78600B467B807B681B6923F4804263
:101674007B681A617B681A697B889B031A437B68C1
:101684001A6100BF0C37BD465DF8047B704780B417
:1016940083B000AF78600B467B807B681B6923F4C2
:1016A40040527B681A617B681A697B881B031A4362
:1016B4007B681A6100BF0C37BD465DF8047B704738
:1016C40080B483B000AF78600B467B807B681B6975
:1016D40023F400627B681A617B681A697B88DB02E9
:1016E4001A437B681A6100BF0C37BD465DF8047B62
:1016F400704780B483B000AF78600B467B807B6812
:101704001B6923F480627B681A617B681A697B8891
:101714009B021A437B681A6100BF0C37BD465DF813
:10172400047B704780B483B000AF78600B467B8045
:101734007B681B6923F400727B681A617B681A69F1
:101744007B885B021A437B681A6100BF0C37BD4675
:101754005DF8047B704780B483B000AF78600B46BB
:101764007B807B681B6923F480727B681A617B68C9
:101774001A697B881B021A437B681A6100BF0C3705
:10178400BD465DF8047B704780B483B000AF7860D9
:101794000B467B807B681B6923F040027B681A61DF
:1017A4007B681A697B889B011A437B681A6100BFB6
:1017B4000C37BD465DF8047B704780B483B000AF3E
:1017C40078600B467B807B681B6923F020027B6872
:1017D4001A617B681A697B885B011A437B681A610A
:1017E40000BF0C37BD465DF8047B704780B483B0FE
:1017F40000AF78600B467B807B681B6923F00F0287
:101804007B681A617B681A697B881A437B681A6152
:1018140000BF0C37BD465DF8047B704780B483B0CD
:1018240000AF78600B467B807B685B6923F40062C1
:101834007B685A617B685A697B88DB021A437B6840
:101844005A6100BF0C37BD465DF8047B704780B415
:1018540083B000AF78600B467B807B685B6923F4C0
:1018640080627B685A617B685A697B889B021A4351
:101874007B685A6100BF0C37BD465DF8047B704736
:1018840080B483B000AF78600B467B807B685B6973
:1018940023F400727B685A617B685A697B885B0217
:1018A4001A437B685A6100BF0C37BD465DF8047B60
:1018B400704780B483B000AF78600B467B807B6850
:1018C4005B6923F480727B685A617B685A697B8800
:1018D4001B021A437B685A6100BF0C37BD465DF892
:1018E400047B704780B483B000AF78600B467B8084
:1018F4007B685B6923F080027B685A617B685A6964
:101904007B88DB011A437B685A6100BF0C37BD46F4
:101914005DF8047B704780B483B000AF78600B46F9
:101924007B807B685B6923F040027B685A617B683B
:101934005A697B889B011A437B685A6100BF0C3744
:10194400BD465DF8047B704780B483B000AF786017
:101954000B467B807B685B6923F020027B685A61BD
:101964007B685A697B885B011A437B685A6100BFB4
:101974000C37BD465DF8047B704780B483B000AF7C
:1019840078600B467B807B685B6923F010027B6880
:101994005A617B685A697B881B011A437B685A61C8
:1019A40000BF0C37BD465DF8047B704780B483B03C
:1019B40000AF78600B467B807B685B6923F008028C
:1019C4007B685A617B685A697B88DB001A437B68B1
:1019D4005A6100BF0C37BD465DF8047B704780B484
:1019E40083B000AF78600B467B807B685B6923F033
:1019F40004027B685A617B685A697B889B001A439E
:101A04007B685A6100BF0C37BD465DF8047B7047A4
:101A140080B483B000AF78600B467B807B685B69E1
:101A240023F002027B685A617B685A697B885B00F9
:101A34001A437B685A6100BF0C37BD465DF8047BCE
:101A4400704780B483B000AF78600B467B807B68BE
:101A54005B6923F001027B685A617B685A697B8861
:101A64001A437B685A6100BF0C37BD465DF8047B9E
:101A7400704780B483B000AF78600B467B807B688E
:101A84009B6823F47F4323F0F0037A6893607B68B8
:101A94009A687B881B011A437B689A6000BF0C37E5
:101AA400BD465DF8047B704780B483B000AF7860B6
:101AB4000B467B807B689B6823F00F027B689A60EF
:101AC4007B689A687B881A437B689A6000BF0C37EE
:101AD400BD465DF8047B704780B483B000AF786086
:101AE4000B467B807B689B6923F47F427B689A6109
:101AF4007B689A697B881B021A437B689A6100BFE2
:101B04000C37BD465DF8047B704780B483B000AFEA
:101B140078600B467B807B689B6923F0FF027B68BF
:101B24009A617B689A697B881A437B689A6100BFD3
:101B34000C37BD465DF8047B704780B483B000AFBA
:101B440078607B681B68DB099BB203F001039BB2DE
:101B540018460C37BD465DF8047B704780B483B0EB
:101B640000AF78607B681B685B099BB203F00103DC
:101B74009BB218460C37BD465DF8047B704780B4B1
:101B840083B000AF78600B467B807A887B685A60AC
:101B940000BF0C37BD465DF8047B704780B483B04A
:101BA40000AF78607B685B689BB218460C37BD4613
:101BB4005DF8047B704780B582B000AF78600B4657
:101BC4007B8000BF7868FFF7B8FF0346002BF9D08D
:101BD4007B8819467868FFF7D2FF00BF0837BD46F7
:101BE40080BD80B582B000AF786000BF7868FFF731
:101BF400B5FF0346002BF9D07868FFF7CFFF034603
:101C040018460837BD4680BD80B582B000AF034694
:101C1400FB7197F907301846FFF77CF900BF0837C6
:101C2400BD4680BD70B50D4D0D4C641BA41000263F
:101C3400A64209D10B4D0C4C00F018F8641BA410FB
:101C44000026A64205D170BD55F8043B98470136DD
:101C5400EEE755F8043B98470136F2E7881C000884
:101C6400881C0008881C00088C1C0008F8B500BFFC
:101C7400F8BC08BC9E467047F8B500BFF8BC08BC69
:041C84009E467047C1
:041C8800B901000896
:041C8C0095010008B6
:0400000508000AA540
:00000001FF
