:020000040800F2
:10000000008001203D0300088D0300088D030008D7
:100010008D0300088D0300088D0300080000000018
:100020000000000000000000000000008D03000838
:100030008D030008000000008D0300088D030008F8
:100040008D0300088D0300088D0300088D03000850
:100050008D0300088D0300088D0300088D03000840
:100060008D0300088D0300088D0300088D03000830
:100070008D0300088D0300088D0300088D03000820
:100080008D0300088D0300088D03000800000000A8
:100090000000000000000000000000008D030008C8
:1000A0008D0300088D0300088D0300088D030008F0
:1000B0008D0300088D0300088D0300088D030008E0
:1000C0008D0300088D0300088D0300088D030008D0
:1000D0008D0300088D0300088D0300080000000058
:1000E0008D0300088D0300088D0300080000000048
:1000F0000000000000000000000000008D03000868
:10010000000000008D0300088D0300088D03000827
:1001100000000000000000000000000000000000DF
:100120008D0300088D0300088D0300088D0300086F
:100130008D03000800000000000000000000000027
:100140000000000000000000000000008D03000817
:100150008D0300088D0300088D0300088D0300083F
:100160008D0300088D03000800000000000000005F
:10017000000000000000000000000000000000007F
:10018000000000008D0300080000000000000000D7
:040190008D030008D3
:1001940010B5054C237833B9044B13B10448AFF3BD
:1001A40000800123237010BD000000200000000027
:1001B4002410000808B5034B1BB103490348AFF3EF
:1001C400008008BD00000000040000202410000886
:1001D40080B596B000AF00F095F8454B1B6B444AD0
:1001E40043F001031363424B1B6B414A43F0080382
:1001F4001363404B1B683F4A43F02A7343F40033B4
:1002040013603C4B5A6A3B493B4B13434B623B4B99
:100214001B683A4A43F055031360394B3B60002393
:100224007B6000233B8100237B810023BB8100236F
:10023400FB8100233B8200237B820023BB820023BB
:10024400FB8200233B8300237B830023BB830123A6
:10025400FB8301233B8400237B840023BB84002392
:10026400FB8400233B8500237B850023BB8500237F
:10027400FB8500233B8600237B860023BB8600236B
:10028400FB8600233B8700237B870023BB87002357
:10029400FB870023A7F840300023A7F8423000234F
:1002A400A7F844300023A7F846300023A7F84830C5
:1002B4000023A7F84A300023A7F84C300023A7F8FE
:1002C4004E304FF41673A7F850300023A7F852307D
:1002D4000023A7F854300023A7F856303B461846AD
:1002E40000F097F93B46184600F063FEFAE700BFBA
:1002F400003802400000024077770700000C0240FB
:100304000010014080B400AF00BFBD465DF8047B1F
:100314007047000080B400AF064BD3F88830054A1C
:1003240043F47003C2F8883000BFBD465DF8047B17
:10033400704700BF00ED00E0DFF834D0FFF7EAFFBC
:100344000C480D490D4A002302E0D458C45004332C
:10035400C4188C42F9D30A4A0A4C002301E0136002
:100364000432A242FBD300F037FEFFF731FF70479F
:10037400008001200000002000000020441000083C
:10038400000000201C000020FEE7000080B483B0C1
:1003940000AF78607B68022B17D07B68022B1BD8D8
:1003A4007B68002B03D07B68012B07D014E00D4B36
:1003B4005B6C0C4A43F0100353640DE0094B1B6C57
:1003C400084A43F40033136406E0064B5B6C054AA9
:1003D40043F02003536400BF00BF0C37BD465DF8F3
:1003E400047B70470038024080B584B000AFF860E9
:1003F400084611461A4603467B810B463B81134649
:10040400FB807B891946F86800F0D0F93B891946CE
:10041400F86800F0E4F9FB881946F86800F0F8F988
:100424003B8B1946F86800F00CFABB8B1946F86848
:1004340000F020FA3B8C1946F86800F034FABB8CC3
:100444001946F86800F048FA3B8D1946F86800F040
:100454005CFABB8D1946F86800F070FA3B8E1946B9
:10046400F86800F084FABB8E1946F86800F098FA30
:100474003B8F1946F86800F0ACFABB8F1946F86850
:1004840000F0C0FAB7F840301946F86800F0D3FA23
:10049400B7F844301946F86800F0E6FA00BF1037A0
:1004A400BD4680BD80B584B000AFF86008461146F3
:1004B4001A4603467B810B463B811346FB807B89AE
:1004C4001946F86800F0E8FA3B891946F86800F024
:1004D400FCFAFB881946F86800F010FB3B8B1946C0
:1004E400F86800F024FBBB8B1946F86800F038FB71
:1004F4003B8C1946F86800F04CFBBB8C1946F86835
:1005040000F060FB3B8D1946F86800F074FBBB8D6E
:100514001946F86800F088FB00BF1037BD4680BD5F
:1005240080B584B000AFF860084611461A46034609
:100534007B810B463B811346FB807B891946F86817
:1005440000F08AFB3B891946F86800F09EFBFB88A3
:100554001946F86800F0B2FB3B8B1946F86800F0C6
:10056400C6FBBB8B1946F86800F0DAFB3B8C1946D6
:10057400F86800F0EEFBBB8C1946F86800F002FC4A
:100584003B8D1946F86800F016FCBB8D1946F868D7
:1005940000F02AFC3B8E1946F86800F03EFCBB8E46
:1005A4001946F86800F052FC3B8F1946F86800F0D1
:1005B40066FC00BF1037BD4680BD80B582B000AF79
:1005C40078600B467B8013463B807B8819467868AD
:1005D40000F06DFC3B881946786800F083FC00BF8E
:1005E4000837BD4680BD80B582B000AF78600B4649
:1005F4007B8013463B807B881946786800F08AFC30
:100604003B881946786800F09EFC00BF0837BD4659
:1006140080BD2DE9F04194B00CAFF861FB695B68D3
:100624001846FFF7B3FEFB691B680021184600F06B
:10063400D6F8FB691868FB69B3F85010FB69B3F886
:1006440052301A46FFF7B9FFFB691B68BB61FB69AF
:10065400B3F808C0FB69B3F80AE0FB69B3F80C808F
:10066400FB69D889FB691C8AFB695D8AFB699E8AE0
:10067400FB69DA8A7A61FB69198B3961FB695B8BE7
:10068400FB60FB699A8BBA60FB69D98B7960FB6963
:10069400198CFB695A8CFB699B8C0B930A92099108
:1006A40079680891BA680792FB68069339690591DD
:1006B4007A69049203960295019400904346724627
:1006C4006146B869FFF790FEFB691E68FB69B3F8E1
:1006D40026C0FB69B3F828E0FB69B3F82A80FB69FC
:1006E4009B8DFA69D28DF969098EF869408EFC698F
:1006F400A48EFD69ED8E05950494039002910192F8
:1007040000934346724661463046FFF7CBFEFB69D1
:100714001B68BB61FB69B3F838C0FB69B3F83AE006
:10072400FB69B3F83C80FB69DB8FFA69B2F84020BF
:100734007A61F969B1F84210F869B0F84400FC69CB
:10074400B4F84640FD69B5F84850FE69B6F84A6009
:10075400FA69B2F84C203A61FA69B2F84E2008926C
:100764003A690792069605950494039002917A6972
:1007740001920093434672466146B869FFF7D0FE82
:10078400FB691868FB69B3F85410FB69B3F8563079
:100794001A46FFF728FFFB691B680121184600F081
:1007A4001EF800BF2037BD46BDE8F08180B483B099
:1007B40000AF78600B467B807B68DB6823F40042E3
:1007C4007B68DA607B68DA687B88DB031A437B68C2
:1007D400DA6000BF0C37BD465DF8047B704780B417
:1007E40083B000AF78600B467B807B68DB6823F4C2
:1007F40000527B68DA607B68DA687B885B031A43A3
:100804007B68DA6000BF0C37BD465DF8047B704737
:1008140080B483B000AF78600B467B807B68DB6874
:1008240023F480527B68DA607B68DA687B881B0378
:100834001A437B68DA6000BF0C37BD465DF8047B61
:10084400704780B483B000AF78600B467B807B68D0
:10085400DB6823F400627B68DA607B68DA687B8893
:10086400DB021A437B68DA6000BF0C37BD465DF8D3
:10087400047B704780B483B000AF78600B467B8004
:100884007B68DB6823F480627B68DA607B68DA6803
:100894007B889B021A437B68DA6000BF0C37BD4635
:1008A4005DF8047B704780B483B000AF78600B467A
:1008B4007B807B68DB6823F400727B68DA607B688A
:1008C400DA687B885B021A437B68DA6000BF0C3706
:1008D400BD465DF8047B704780B483B000AF786098
:1008E4000B467B807B68DB6823F480727B68DA606C
:1008F4007B68DA687B881B021A437B68DA6000BF76
:100904000C37BD465DF8047B704780B483B000AFFC
:1009140078600B467B807B68DB6823F080027B6811
:10092400DA607B68DA687B88DB011A437B68DA600B
:1009340000BF0C37BD465DF8047B704780B483B0BC
:1009440000AF78600B467B807B68DB6823F0400255
:100954007B68DA607B68DA687B889B011A437B6872
:10096400DA6000BF0C37BD465DF8047B704780B485
:1009740083B000AF78600B467B807B68DB6823F034
:1009840020027B68DA607B68DA687B885B011A4343
:100994007B68DA6000BF0C37BD465DF8047B7047A6
:1009A40080B483B000AF78600B467B807B68DB68E3
:1009B40023F010027B68DA607B68DA687B881B01AD
:1009C4001A437B68DA6000BF0C37BD465DF8047BD0
:1009D400704780B483B000AF78600B467B807B683F
:1009E400DB6823F008027B68DA607B68DA687B885E
:1009F400DB001A437B68DA6000BF0C37BD465DF844
:100A0400047B704780B483B000AF78600B467B8072
:100A14007B68DB6823F004027B68DA607B68DA6851
:100A24007B889B001A437B68DA6000BF0C37BD46A5
:100A34005DF8047B704780B483B000AF78600B46E8
:100A44007B807B68DB6823F002027B68DA607B686A
:100A5400DA687B885B001A437B68DA6000BF0C3776
:100A6400BD465DF8047B704780B483B000AF786006
:100A74000B467B807B68DB6823F001027B68DA60CD
:100A84007B68DA687B881A437B68DA6000BF0C37BE
:100A9400BD465DF8047B704780B483B000AF7860D6
:100AA4000B467B807B681B6923F480427B681A6158
:100AB4007B681A697B889B031A437B681A6100BFB1
:100AC4000C37BD465DF8047B704780B483B000AF3B
:100AD40078600B467B807B681B6923F440527B68FB
:100AE4001A617B681A697B881B031A437B681A6145
:100AF40000BF0C37BD465DF8047B704780B483B0FB
:100B040000AF78600B467B807B681B6923F400622E
:100B14007B681A617B681A697B88DB021A437B68ED
:100B24001A6100BF0C37BD465DF8047B704780B482
:100B340083B000AF78600B467B807B681B6923F42D
:100B440080627B681A617B681A697B889B021A43FE
:100B54007B681A6100BF0C37BD465DF8047B7047A3
:100B640080B483B000AF78600B467B807B681B69E0
:100B740023F400727B681A617B681A697B885B02C4
:100B84001A437B681A6100BF0C37BD465DF8047BCD
:100B9400704780B483B000AF78600B467B807B687D
:100BA4001B6923F480727B681A617B681A697B88ED
:100BB4001B021A437B681A6100BF0C37BD465DF8FF
:100BC400047B704780B483B000AF78600B467B80B1
:100BD4007B681B6923F040027B681A617B681A6991
:100BE4007B889B011A437B681A6100BF0C37BD46A2
:100BF4005DF8047B704780B483B000AF78600B4627
:100C04007B807B681B6923F020027B681A617B6808
:100C14001A697B885B011A437B681A6100BF0C3731
:100C2400BD465DF8047B704780B483B000AF786044
:100C34000B467B807B681B6923F00F027B681A617B
:100C44007B681A697B881A437B681A6100BF0C377A
:100C5400BD465DF8047B704780B483B000AF786014
:100C64000B467B807B685B6923F400627B685A6176
:100C74007B685A697B88DB021A437B685A6100BF30
:100C84000C37BD465DF8047B704780B483B000AF79
:100C940078600B467B807B685B6923F480627B68A9
:100CA4005A617B685A697B889B021A437B685A6144
:100CB40000BF0C37BD465DF8047B704780B483B039
:100CC40000AF78600B467B807B685B6923F400721D
:100CD4007B685A617B685A697B885B021A437B682C
:100CE4005A6100BF0C37BD465DF8047B704780B481
:100CF40083B000AF78600B467B807B685B6923F42C
:100D040080727B685A617B685A697B881B021A432C
:100D14007B685A6100BF0C37BD465DF8047B7047A1
:100D240080B483B000AF78600B467B807B685B69DE
:100D340023F080027B685A617B685A697B88DB01F7
:100D44001A437B685A6100BF0C37BD465DF8047BCB
:100D5400704780B483B000AF78600B467B807B68BB
:100D64005B6923F040027B685A617B685A697B881F
:100D74009B011A437B685A6100BF0C37BD465DF87E
:100D8400047B704780B483B000AF78600B467B80EF
:100D94007B685B6923F020027B685A617B685A692F
:100DA4007B885B011A437B685A6100BF0C37BD46E0
:100DB4005DF8047B704780B483B000AF78600B4665
:100DC4007B807B685B6923F010027B685A617B68D7
:100DD4005A697B881B011A437B685A6100BF0C3730
:100DE400BD465DF8047B704780B483B000AF786083
:100DF4000B467B807B685B6923F008027B685A6141
:100E04007B685A697B88DB001A437B685A6100BFA0
:100E14000C37BD465DF8047B704780B483B000AFE7
:100E240078600B467B807B685B6923F004027B68F7
:100E34005A617B685A697B889B001A437B685A61B4
:100E440000BF0C37BD465DF8047B704780B483B0A7
:100E540000AF78600B467B807B685B6923F00202FD
:100E64007B685A617B685A697B885B001A437B689C
:100E74005A6100BF0C37BD465DF8047B704780B4EF
:100E840083B000AF78600B467B807B685B6923F09E
:100E940001027B685A617B685A697B881A437B68C4
:100EA4005A6100BF0C37BD465DF8047B704780B4BF
:100EB40083B000AF78600B467B807B689B6823F42B
:100EC4007F4323F0F0037A6893607B689A687B8899
:100ED4001B011A437B689A6000BF0C37BD465DF85E
:100EE400047B704780B483B000AF78600B467B808E
:100EF4007B689B6823F00F027B689A607B689A6822
:100F04007B881A437B689A6000BF0C37BD465DF846
:100F1400047B704780B483B000AF78600B467B805D
:100F24007B689B6923F47F427B689A617B689A693A
:100F34007B881B021A437B689A6100BF0C37BD464D
:100F44005DF8047B704780B483B000AF78600B46D3
:100F54007B807B689B6923F0FF027B689A617B68D6
:100F64009A697B881A437B689A6100BF0C37BD4637
:100F74005DF8047B704780B483B000AF78607B6811
:100F84001B685B099BB203F001039BB218460C3744
:100F9400BD465DF8047B704780B483B000AF7860D1
:100FA4007B685B689BB218460C37BD465DF8047BD2
:100FB400704780B582B000AF786000BF7868FFF7F3
:100FC400DAFF0346002BF9D07868FFF7E5FF034604
:100FD40018460837BD4680BD70B50D4D0D4C641BD9
:100FE400A4100026A64209D10B4D0C4C00F018F8B1
:100FF400641BA4100026A64205D170BD55F8043B1D
:1010040098470136EEE755F8043B98470136F2E776
:101014003C1000083C1000083C1000084010000878
:10102400F8B500BFF8BC08BC9E467047F8B500BFD1
:08103400F8BC08BC9E467047A1
:04103C00B9010008EE
:04104000950100080E
:040000050800033DAF
:00000001FF
