:020000040800F2
:10000000008001203D0400088D0400088D040008D4
:100010008D0400088D0400088D0400080000000015
:100020000000000000000000000000008D04000837
:100030008D040008000000008D0400088D040008F5
:100040008D0400088D0400088D0400088D0400084C
:100050008D0400088D040008B5020008C7020008DE
:10006000D9020008EB0200088D0400088D04000886
:100070008D0400088D0400088D0400088D0400081C
:100080008D0400088D0400088D04000800000000A5
:100090000000000000000000000000008D040008C7
:1000A0008D0400088D0400088D0400088D040008EC
:1000B0008D0400088D0400088D0400088D040008DC
:1000C0008D0400088D0400088D0400088D040008CC
:1000D0008D0400088D0400088D0400080000000055
:1000E0008D0400088D0400088D0400080000000045
:1000F0000000000000000000000000008D04000867
:10010000000000008D0400088D0400088D04000824
:1001100000000000000000000000000000000000DF
:100120008D0400088D0400088D0400088D0400086B
:100130008D04000800000000000000000000000026
:100140000000000000000000000000008D04000816
:100150008D0400088D0400088D0400088D0400083B
:100160008D0400088D04000800000000000000005D
:10017000000000000000000000000000000000007F
:10018000000000008D0400080000000000000000D6
:040190008D040008D2
:1001940010B5054C237833B9044B13B10448AFF3BD
:1001A40000800123237010BD000000200000000027
:1001B4005809000808B5034B1BB103490348AFF3C2
:1001C400008008BD00000000040000205809000859
:1001D40080B588B000AF204B1B6B1F4A43F0080367
:1001E40013631D4B1B6B1C4A43F001031363012370
:1001F4007B600023BB600123FB6000233B61002381
:100204007B610023FB6109E0FB693B603B461946C7
:10021400124800F059F9FB690133FB61FB69072BB4
:10022400F2DD00237B600023BB6109E0BB693B6016
:100234003B4619460A4800F047F9BB690133BB61E4
:10024400BB69032BF2DD00F00FF8064B00221A60A5
:1002540000BF2037BD4680BD00380240000C02407C
:10026400000002401C00002080B500AF01210020E6
:1002740000F08AFA0621002000F0FAFA0121012098
:1002840000F082FA0721012000F0F2FA0121022095
:1002940000F07AFA0821022000F0EAFA0121032092
:1002A40000F072FA0921032000F0E2FA00BF80BDD9
:1002B40080B500AF002000F005FB00F031F800BF6E
:1002C40080BD80B500AF012000F0FCFA00F056F8C4
:1002D40000BF80BD80B500AF022000F0F3FA00F04B
:1002E40065F800BF80BD80B500AF032000F0EAFAD6
:1002F40000F074F800BF80BD80B582B000AF7860B4
:10030400054A7B6832F813301946044800F018FA9D
:1003140000BF0837BD4680BD70090008000C0240CC
:1003240080B582B000AF00237B601BE07868FFF7E4
:10033400E3FF00233B600DE000210E4800F0C9F903
:100344000346002B03D07B680B4A13600EE03B6826
:1003540001333B603B6842F20F729342ECDD7B68F1
:1003640001337B607B68092BE0DDDCE70837BD46A1
:1003740080BD00BF000002401C00002080B500AF1B
:10038400094B1B68092B02D1074B08221A60064B44
:100394001B680133044A1360034B1B681846FFF7BC
:1003A400ABFF00BF80BD00BF1C00002080B500AFC4
:1003B400094B1B68002B02D1074B01221A60064B24
:1003C4001B68013B044A1360034B1B681846FFF784
:1003D40093FF00BF80BD00BF1C00002080B500AFAC
:1003E4000020FFF789FF024B00221A6000BF80BD86
:1003F4001C00002080B500AF00F004F8FFF7E8FE11
:1004040000BFFDE780B400AF00BFBD465DF8047BCC
:100414007047000080B400AF064BD3F88830054A1B
:1004240043F47003C2F8883000BFBD465DF8047B16
:10043400704700BF00ED00E0DFF834D0FFF7EAFFBB
:100444000C480D490D4A002302E0D458C45004332B
:10045400C4188C42F9D30A4A0A4C002301E0136001
:100464000432A242FBD300F051FAFFF7C3FF7047F6
:100474000080012000000020000000208C090008FA
:100484000000002020000020FEE7000080B483B0BC
:1004940000AF0346FB7197F90730002B0BDBFB79A8
:1004A40003F01F02074997F907305B09012000FA9E
:1004B40002F241F8232000BF0C37BD465DF8047BEF
:1004C400704700BF00E100E080B582B000AF786003
:1004D40039603B681B6899B23B685B681A46786868
:1004E40000F047F80346002B02D04FF0FF333CE006
:1004F4003B681B6899B23B689B681A46786800F0B1
:100504005BF80346002B02D04FF0FF332DE03B682D
:100514001B6899B23B68DB681A46786800F06DF88E
:100524000346002B02D04FF0FF331EE03B681B68EC
:1005340099B23B681B691A46786800F081F8034653
:10054400002B02D04FF0FF330FE03B681B6899B2D9
:100554003B685B691A46786800F095F80346002BFF
:1005640002D04FF0FF3300E0002318460837BD46A1
:1005740080BD80B485B000AFF8600B467A607B81A3
:10058400FB681B687A895200032101FA02F2D24304
:100594001A40FB681A60FB681A687B895B007968FB
:1005A40001FA03F31A43FB681A6000231846143750
:1005B400BD465DF8047B704780B485B000AFF86039
:1005C4000B467A607B81FB685B687A89012101FABA
:1005D40002F2D2431A40FB685A60FB685A687B896E
:1005E400796801FA03F31A43FB685A60002318463A
:1005F4001437BD465DF8047B704780B485B000AF06
:10060400F8600B467A607B81FB689B687A895200AC
:10061400032101FA02F2D2431A40FB689A60FB6894
:100624009A687B895B00796801FA03F31A43FB68D3
:100634009A60002318461437BD465DF8047B704762
:1006440080B485B000AFF8600B467A607B81FB68AC
:10065400DB687A895200032101FA02F2D2431A407C
:10066400FB68DA60FB68DA687B895B00796801FA09
:1006740003F31A43FB68DA60002318461437BD46B7
:100684005DF8047B704780B485B000AFF8600B461A
:100694007A607B817B89072B14D8FB681B6A7A8973
:1006A40092000F2101FA02F2D2431A40FB681A6247
:1006B400FB681A6A7B899B00796801FA03F31A4381
:1006C400FB681A62002318461437BD465DF8047BA4
:1006D400704780B483B000AF78600B467B807B6842
:1006E4001A697B8822FA03F3DBB203F00103DBB25D
:1006F40018460C37BD465DF8047B704780B483B060
:1007040000AF78600B467B8013467B707B685B6927
:100714007A88012101FA02F2D2431A407B685A61B5
:100724007B685B6979787A8801FA02F21A437B68FC
:100734005A61002318460C37BD465DF8047B7047A8
:1007440080B584B000AF78600B467B800023FB60EB
:1007540011E07B8803F001037B81FB689BB27A89FB
:10076400D2B219467868FFF7C9FF7B885B087B80A3
:10077400FB680133FB60FB680E2BEADD002318469F
:100784001037BD4680BD000080B483B000AF03467F
:100794003960FB803B68002B16D1344B9B68FA8888
:1007A400012101FA02F2D2431146304A0B40936010
:1007B4002E4B9B68FA88012101FA02F211462B4A5A
:1007C4000B43936000234AE03B68012B16D1274B6F
:1007D400DB68FA88012101FA02F2D2431146234A66
:1007E4000B40D360214BDB68FA88012101FA02F245
:1007F40011461E4A0B43D360002330E03B68022BB2
:100804002BD11A4B9B68FA88012101FA02F2D243D8
:100814001146164A0B409360144B9B68FA880121D9
:1008240001FA02F21146114A0B4393600F4BDB6845
:10083400FA88012101FA02F2D24311460B4A0B4015
:10084400D3600A4BDB68FA88012101FA02F21146EF
:10085400064A0B43D360002301E04FF0FF331846F0
:100864000C37BD465DF8047B704700BF003C014077
:1008740080B582B000AF03460A46FB8013467B7105
:100884000F4B1B68FA88012101FA02F2D243114688
:100894000B4A0B4013600A4B1B68FA88012101FACA
:1008A40002F21146064A0B43136097F905301846C5
:1008B400FFF7ECFD002318460837BD4680BD00BF96
:1008C400003C014080B483B000AF0346FB800E4B74
:1008D4005B69FA88012101FA02F21340002B0BD064
:1008E400094B5B69FA88012101FA02F21146064AB2
:1008F4000B435361002300E0002318460C37BD4628
:100904005DF8047B704700BF003C014070B50D4D9D
:100914000D4C641BA4100026A64209D10B4D0C4CAF
:1009240000F018F8641BA4100026A64205D170BD7F
:1009340055F8043B98470136EEE755F8043B9847D1
:100944000136F2E7840900088409000884090008D4
:1009540088090008F8B500BFF8BC08BC9E4670477B
:0C096400F8B500BFF8BC08BC9E46704708
:100970003F0006005B004F0066006D007D00070031
:040980007F006F0085
:04098400B9010008AD
:0409880095010008CD
:040000050800043DAE
:00000001FF
