:020000040800F2
:1000000000800120E10500083106000831060008E3
:100010003106000831060008310600080000000023
:100020000000000000000000000000003106000891
:100030003106000800000000310600083106000803
:1000400031060008310600083106000831060008B4
:100050003106000831060008610400081503000895
:100060003106000831060008310600083106000894
:100070003106000831060008310600083106000884
:1000800031060008310600083106000800000000B3
:100090000000000000000000000000003106000821
:1000A0003106000831060008310600083106000854
:1000B0003106000831060008310600083106000844
:1000C0003106000831060008310600083106000834
:1000D0007104000831060008310600080000000025
:1000E0003106000831060008310600080000000053
:1000F00000000000000000000000000031060008C1
:100100000000000031060008310600083106000832
:1001100000000000000000000000000000000000DF
:1001200031060008310600083106000831060008D3
:100130003106000800000000000000000000000080
:100140000000000000000000000000003106000870
:1001500031060008310600083106000831060008A3
:100160003106000831060008000000000000000011
:10017000000000000000000000000000000000007F
:100180000000000031060008000000000000000030
:04019000310600082C
:1001940010B5054C237833B9044B13B10448AFF3BD
:1001A40000800123237010BD000000200000000027
:1001B400900E000808B5034B1BB103490348AFF385
:1001C400008008BD0000000004000020900E00081C
:1001D40080B588B000AF114B1B6B104A43F0080385
:1001E40013630123BB600023FB6001233B610023F5
:1001F4007B610023FB6109E0FB697B603B1D1946C1
:10020400074800F014FAFB690133FB61FB69032B17
:10021400F2DD00BF00BF2037BD4680BD003802407C
:10022400000C024080B586B000AF104B1B6B0F4A28
:1002340043F00103136300233B6000237B6000232E
:10024400BB600123FB6000233B613B461946084821
:1002540000F0EDF901233B603B461946044800F0E9
:10026400E6F900BF1837BD4680BD00BF0038024024
:100274000000024080B584B000AF0023FB73032369
:10028400BB6010E0BB689BB21946204800F0C0FA7E
:1002940003461A46FB7B1344FB73FB7B5B00FB7337
:1002A400BB68013BBB60BB68002BEBDCBB689BB24B
:1002B4001946164800F0ACFA03461A46FB7B134471
:1002C400FB73FB7B0133FB73FB7B102B01D10023FE
:1002D400FB730023BB6010E0FB7B03F00103FB71A5
:1002E400BB689BB2FA791946084800F0A6FAFB7B72
:1002F4005B08FB73BB680133BB60BB68032BEBDD9E
:1003040000BF00BF1037BD4680BD00BF000C0240D7
:1003140080B500AF012000F0B1FAFFF7ABFF00BFDA
:1003240080BD000080B483B000AF0346FB7197F931
:100334000730002B0BDBFB7903F01F02074997F909
:1003440007305B09012000FA02F241F8232000BFC4
:100354000C37BD465DF8047B704700BF00E100E048
:1003640080B586B000AF1F4B1B6B1E4A43F00203DF
:10037400136302237B600D233B6002233B61012353
:10038400FB600023BB603B689BB2052219461648FC
:1003940000F000FA3B461946134800F048F90E23D2
:1003A4003B6001233B613B689BB2052219460E4822
:1003B40000F0F0F93B4619460B4800F038F90F23DA
:1003C4003B603B689BB205221946074800F0E2F9FE
:1003D4003B461946044800F02AF900BF1837BD46C9
:1003E40080BD00BF003802400004024080B500AF69
:1003F400174B1B6C164A43F480431364154B164A7F
:100404001A60144B20225A61124B00225A60114B7D
:1004140001221A620F4B0022DA610E4B00229A600D
:100424000C4B00221A610B4B0122DA60094B0122AA
:100434009A61084B012283F83420064800F021FB1E
:100444002420FFF76FFFFFF715FF00BF80BD00BF3B
:10045400003802401C0000200038004080B500AF86
:10046400002000F00BFA00BF80BD000080B500AF93
:10047400034800F0F8FB034B01221A6000BF80BD63
:100484001C0000205400002080B584B000AF1F4B36
:100494007B6000BF1E4B93F83430012BFAD101234B
:1004A4003B7300237B7307F10C030222194618489F
:1004B40000F035FB00BF164B93F83430012BFAD112
:1004C40007F1080302221946114800F04BFB00BF54
:1004D4000F4B93F83430012BFAD13B7A022B04D121
:1004E4007B7A002B01D1FFF7C5FE3B1D0422194680
:1004F400074800F014FB00BF054B93F83430012B80
:10050400FAD100BF00BF1037BD4680BD010404000E
:100514001C00002080B584B000AF00BF1D4B93F8D1
:100524003430012BFAD103233B7300237B7307F18F
:100534000C0302221946174800F0F1FA00BF154BCC
:1005440093F83430012BFAD107F10803022219463B
:10055400104800F007FB00BF0E4B93F83430012B1A
:10056400FAD13B7A042B04D17B7A012B01D1FFF71A
:1005740081FE3B1D04221946064800F0F3FA00BF31
:10058400044B93F83430012BFAD100BF00BF10376D
:10059400BD4680BD1C00002080B500AFFFF718FEEB
:1005A400FFF740FEFFF7DCFEFFF720FFFFF76CFFCD
:1005B400FFF7B0FF00BFF9E780B400AF064BD3F8F4
:1005C4008830054A43F47003C2F8883000BFBD4642
:1005D4005DF8047B704700BF00ED00E0DFF834D025
:1005E400FFF7EAFF0C480D490D4A002302E0D458F6
:1005F400C4500433C4188C42F9D30A4A0A4C002369
:1006040001E013600432A242FBD300F01BFCFFF7AD
:10061400C3FF70470080012000000020000000207C
:10062400B00E00080000002058000020FEE780B54E
:1006340082B000AF786039603B681B6899B23B6850
:100644005B681A46786800F01FF83B681B6899B22B
:100654003B689B681A46786800F038F83B681B686A
:1006640099B23B68DB681A46786800F04FF83B683B
:100674001B6899B23B681B691A46786800F068F8F1
:1006840000BF0837BD4680BD80B485B000AFF860B8
:100694000B467A607B81FB681B687A8952000321D0
:1006A40001FA02F2D2431A40FB681A60FB681A6826
:1006B4007B895B00796801FA03F31A43FB681A60CB
:1006C40000BF1437BD465DF8047B704780B485B025
:1006D40000AFF8600B467A607B81FB685B687A89BF
:1006E400012101FA02F2D2431A40FB685A60FB6806
:1006F4005A687B89796801FA03F31A43FB685A60E4
:1007040000BF1437BD465DF8047B704780B485B0E4
:1007140000AFF8600B467A607B81FB689B687A893E
:100724005200032101FA02F2D2431A40FB689A6094
:10073400FB689A687B895B00796801FA03F31A43C2
:10074400FB689A6000BF1437BD465DF8047B7047B0
:1007540080B485B000AFF8600B467A607B81FB689B
:10076400DB687A895200032101FA02F2D2431A406B
:10077400FB68DA60FB68DA687B895B00796801FAF8
:1007840003F31A43FB68DA6000BF1437BD465DF813
:10079400047B704780B483B000AF78600B467B80E5
:1007A40013463B807B88072B15D87B681B6A7A88A5
:1007B40092000F2101FA02F2D2431A407B681A62B6
:1007C4007B681B6A39887A88920001FA02F21A431C
:1007D4007B681A6216E07B685B6A7A88083A920042
:1007E4000F2101FA02F2D2431A407B685A627B68F5
:1007F4005B6A39887A88083A920001FA02F21A434D
:100804007B685A6200BF0C37BD465DF8047B7047B5
:1008140080B483B000AF78600B467B807B681A6934
:100824007B8822FA03F3DBB203F00103DBB2184640
:100834000C37BD465DF8047B704780B483B000AFCD
:1008440078600B467B8013467B707B685B697A8893
:10085400012101FA02F2D2431A407B685A617B6893
:100864005B6979787A8801FA02F21A437B685A61E3
:1008740000BF0C37BD465DF8047B704780B483B07D
:1008840000AF0346FB800C4B5B69FA88012101FA37
:1008940002F21340002B09D0074B5B69FA8801214F
:1008A40001FA02F21146044A0B43536100BF0C37AC
:1008B400BD465DF8047B7047003C014080B483B0C2
:1008C40000AF786039607B681B6823F004027B68A2
:1008D4001A607B681A683B689B001A437B681A603D
:1008E40000BF0C37BD465DF8047B704780B485B00B
:1008F40000AFF860B9607A60FB681B6823F00102FE
:10090400FB681A60FB681A68BB681A43FB681A60C4
:10091400FB681B6823F00202FB681A60FB681A6814
:100924007B685B001A43FB681A6000BF1437BD463E
:100934005DF8047B704780B483B000AF78603960A1
:100944007B681B6823F080027B681A607B681A68E6
:100954003B68DB011A437B681A6000BF0C37BD4655
:100964005DF8047B704780B483B000AF7860396071
:100974007B681B6823F400727B681A607B681A68C2
:100984003B685B021A437B681A603B68012B03D106
:100994007B681A687B681A6000BF0C37BD465DF837
:1009A400047B704780B483B000AF786039607B68A3
:1009B4001B6823F400727B681A607B681A683B68C2
:1009C4005B021A437B681A6000BF0C37BD465DF8B2
:1009D400047B704780B483B000AF786039607B6873
:1009E4001B6823F038027B681A607B681A683B68CE
:1009F4001A437B681A6000BF0C37BD465DF8047B60
:100A0400704780B483B000AF786039607B681B683E
:100A140023F400427B681A607B681A683B68DB0336
:100A24001A437B681A6000BF0C37BD465DF8047B2F
:100A3400704780B483B000AF786039607B681B680E
:100A440023F400627B681A607B681A683B68DB02E7
:100A54001A437B681A6000BF0C37BD465DF8047BFF
:100A6400704780B483B000AF78607B681B6843F044
:100A740040027B681A6000BF0C37BD465DF8047BFA
:100A8400704780B582B000AF78607B681A687B6875
:100A94005B6919461046FFF79DFF7B681A687B68FF
:100AA4005B6819461046FFF7ACFF7B681A687B68E1
:100AB4009B6919461046FFF701FF7B681A687B683B
:100AC4009B6819461046FFF7B4FF7B681A687B6879
:100AD4001B6919461046FFF72EFF7B6818687B6870
:100AE400196A7B68DB691A46FFF700FF7B689B691C
:100AF400002B08D07B681A687B68DB6819461046AF
:100B0400FFF731FF07E07B681A687B68DB681946EA
:100B14001046FFF747FF00BF0837BD4680BD80B5CC
:100B240084B000AFF860B9607A60FB68BA685A6252
:100B34007B689AB2FB685A857B689AB2FB681A850F
:100B4400FB68122283F83420FB681B681846FFF701
:100B540088FFFB681B68184600F03DF800BF10379B
:100B6400BD4680BD80B586B000AFF860B9607A60DC
:100B740000237B61FB68BA685A627B689AB2FB689F
:100B84005A857B689AB2FB681A85FB68BA68DA6290
:100B94007B689AB2FB685A867B689AB2FB681A86AD
:100BA400FB68222283F83420FB681B681846FFF791
:100BB40058FFFB681B68DB683B61FB681B681846D1
:100BC40000F02DF8FB681B68184600F004F800BF1D
:100BD4001837BD4680BD80B483B000AF78607B68B1
:100BE4005B6843F001027B685A6000BF0C37BD4666
:100BF4005DF8047B704780B483B000AF78607B6895
:100C04005B6823F080027B685A607B685A687B6863
:100C14005A6000BF0C37BD465DF8047B704780B452
:100C240083B000AF78607B685B6843F001027B6847
:100C34005A6000BF0C37BD465DF8047B704780B432
:100C440083B000AF78607B685B6823F040027B6808
:100C54005A607B685A687B685A6000BF0C37BD468F
:100C64005DF8047B704780B584B000AF78607B6822
:100C74001B689B6803F00103FB607B681B685B686F
:100C840003F04003BB60FB68012B06D1BB68012B5A
:100C940003D1786800F01AF815E07B681B689B683C
:100CA40003F00203FB607B681B685B6803F080034E
:100CB400BB60FB68012B06D1BB68012B03D17868AC
:100CC40000F043F800BF1037BD4680BD80B582B048
:100CD40000AF78607B689B68002B19D17B68DB6A66
:100CE400591C7A68D162002B0BD07B681B68DA68C8
:100CF4007B68DB6AD2B21A707B68DB6A5A1C7B6839
:100D0400DA627B685B8E013B9AB27B685A8611E09B
:100D14007B681B68DA687B68DB6A92B21A807B683E
:100D2400DB6A9A1C7B68DA627B685B8E023B9AB250
:100D34007B685A867B685B8D002B02D1786800F053
:100D440054F800BF0837BD4680BD80B582B000AFFF
:100D540078607B689B68002B11D17B685B6A1A788A
:100D64007B681B68DA607B685B6A5A1C7B685A6222
:100D74007B685B8D013B9AB27B685A8510E07B6887
:100D84005B6A1A887B681B68DA607B685B6A9A1CFA
:100D94007B685A627B685B8D023B9AB27B685A859A
:100DA4007B685B8D002B02D1786800F004F800BFEB
:100DB4000837BD4680BD80B582B000AF78607B68DF
:100DC4001B681846FFF717FF7B689B69012B08D146
:100DD4007B6893F83430222B03D07B68012283F89C
:100DE400342000BF0837BD4680BD80B582B000AF57
:100DF400786000BF7B681B68184600F010F8034653
:100E0400002BF7D17B681B681846FFF718FF7B6837
:100E1400012283F8342000BF0837BD4680BD80B46A
:100E240083B000AF78607B689B6803F08003002B7D
:100E340001D0012300E0002318460C37BD465DF8BD
:100E4400047B704770B50D4D0D4C641BA410002637
:100E5400A64209D10B4D0C4C00F018F8641BA410E9
:100E64000026A64205D170BD55F8043B98470136CB
:100E7400EEE755F8043B98470136F2E7A80E000860
:100E8400A80E0008A80E0008AC0E0008F8B500BFB4
:100E9400F8BC08BC9E467047F8B500BFF8BC08BC57
:040EA4009E467047AF
:040EA800B901000884
:040EAC0095010008A4
:04000005080005E109
:00000001FF
